{
  "contractName": "Evaluator",
  "abi": [
    {
      "inputs": [
        {
          "internalType": "contract ERC20TD",
          "name": "_TDAAVE",
          "type": "address"
        },
        {
          "internalType": "contract IERC20",
          "name": "_aDAI",
          "type": "address"
        },
        {
          "internalType": "contract IERC20",
          "name": "_USDC",
          "type": "address"
        },
        {
          "internalType": "contract IERC20",
          "name": "_variableDebtUSDC",
          "type": "address"
        }
      ],
      "stateMutability": "nonpayable",
      "type": "constructor"
    },
    {
      "anonymous": false,
      "inputs": [
        {
          "indexed": false,
          "internalType": "address",
          "name": "erc20Address",
          "type": "address"
        },
        {
          "indexed": false,
          "internalType": "address",
          "name": "adaiAddress",
          "type": "address"
        },
        {
          "indexed": false,
          "internalType": "address",
          "name": "aUsdcAddress",
          "type": "address"
        },
        {
          "indexed": false,
          "internalType": "address",
          "name": "variableDebtUSDCAddress",
          "type": "address"
        }
      ],
      "name": "constructedCorrectly",
      "type": "event"
    },
    {
      "stateMutability": "payable",
      "type": "fallback"
    },
    {
      "inputs": [],
      "name": "TDAAVE",
      "outputs": [
        {
          "internalType": "contract ERC20TD",
          "name": "",
          "type": "address"
        }
      ],
      "stateMutability": "view",
      "type": "function"
    },
    {
      "inputs": [],
      "name": "USDC",
      "outputs": [
        {
          "internalType": "contract IERC20",
          "name": "",
          "type": "address"
        }
      ],
      "stateMutability": "view",
      "type": "function"
    },
    {
      "inputs": [],
      "name": "aDAI",
      "outputs": [
        {
          "internalType": "contract IERC20",
          "name": "",
          "type": "address"
        }
      ],
      "stateMutability": "view",
      "type": "function"
    },
    {
      "inputs": [
        {
          "internalType": "address",
          "name": "",
          "type": "address"
        },
        {
          "internalType": "uint256",
          "name": "",
          "type": "uint256"
        }
      ],
      "name": "exerciceProgression",
      "outputs": [
        {
          "internalType": "bool",
          "name": "",
          "type": "bool"
        }
      ],
      "stateMutability": "view",
      "type": "function"
    },
    {
      "inputs": [
        {
          "internalType": "address",
          "name": "",
          "type": "address"
        }
      ],
      "name": "hasBeenPaired",
      "outputs": [
        {
          "internalType": "bool",
          "name": "",
          "type": "bool"
        }
      ],
      "stateMutability": "view",
      "type": "function"
    },
    {
      "inputs": [
        {
          "internalType": "address",
          "name": "",
          "type": "address"
        }
      ],
      "name": "studentExercice",
      "outputs": [
        {
          "internalType": "contract IExerciceSolution",
          "name": "",
          "type": "address"
        }
      ],
      "stateMutability": "view",
      "type": "function"
    },
    {
      "inputs": [],
      "name": "variableDebtUSDC",
      "outputs": [
        {
          "internalType": "contract IERC20",
          "name": "",
          "type": "address"
        }
      ],
      "stateMutability": "view",
      "type": "function"
    },
    {
      "stateMutability": "payable",
      "type": "receive"
    },
    {
      "inputs": [],
      "name": "ex1_showIDepositedTokens",
      "outputs": [],
      "stateMutability": "nonpayable",
      "type": "function"
    },
    {
      "inputs": [],
      "name": "ex2_showIBorrowedTokens",
      "outputs": [],
      "stateMutability": "nonpayable",
      "type": "function"
    },
    {
      "inputs": [],
      "name": "ex3_showIRepaidTokens",
      "outputs": [],
      "stateMutability": "nonpayable",
      "type": "function"
    },
    {
      "inputs": [],
      "name": "ex4_showIWithdrewTokens",
      "outputs": [],
      "stateMutability": "nonpayable",
      "type": "function"
    },
    {
      "inputs": [],
      "name": "ex5_showContractCanDepositTokens",
      "outputs": [],
      "stateMutability": "nonpayable",
      "type": "function"
    },
    {
      "inputs": [],
      "name": "ex6_showContractCanBorrowTokens",
      "outputs": [],
      "stateMutability": "nonpayable",
      "type": "function"
    },
    {
      "inputs": [],
      "name": "ex9_showContractCanRepayTokens",
      "outputs": [],
      "stateMutability": "nonpayable",
      "type": "function"
    },
    {
      "inputs": [],
      "name": "ex8_showContractCanWithdrawTokens",
      "outputs": [],
      "stateMutability": "nonpayable",
      "type": "function"
    },
    {
      "inputs": [
        {
          "internalType": "contract IExerciceSolution",
          "name": "studentExercice_",
          "type": "address"
        }
      ],
      "name": "submitExercice",
      "outputs": [],
      "stateMutability": "nonpayable",
      "type": "function"
    }
  ],
  "bytecode": "0x60806040523480156200001157600080fd5b5060405162002d5038038062002d50833981810160405262000037919081019062000238565b836000806101000a81548173ffffffffffffffffffffffffffffffffffffffff021916908373ffffffffffffffffffffffffffffffffffffffff16021790555082600160006101000a81548173ffffffffffffffffffffffffffffffffffffffff021916908373ffffffffffffffffffffffffffffffffffffffff16021790555081600260006101000a81548173ffffffffffffffffffffffffffffffffffffffff021916908373ffffffffffffffffffffffffffffffffffffffff16021790555080600360006101000a81548173ffffffffffffffffffffffffffffffffffffffff021916908373ffffffffffffffffffffffffffffffffffffffff1602179055507f82169bf8e2a940653a3005b8fbe3a01d8ab56fd5bbbcd0bf31ac67b29cee1f976000809054906101000a900473ffffffffffffffffffffffffffffffffffffffff16600160009054906101000a900473ffffffffffffffffffffffffffffffffffffffff16600260009054906101000a900473ffffffffffffffffffffffffffffffffffffffff16600360009054906101000a900473ffffffffffffffffffffffffffffffffffffffff16604051620001f89493929190620002b5565b60405180910390a15050505062000392565b6000815190506200021b816200035e565b92915050565b600081519050620002328162000378565b92915050565b600080600080608085870312156200024f57600080fd5b60006200025f878288016200020a565b9450506020620002728782880162000221565b9350506040620002858782880162000221565b9250506060620002988782880162000221565b91505092959194509250565b620002af8162000302565b82525050565b6000608082019050620002cc6000830187620002a4565b620002db6020830186620002a4565b620002ea6040830185620002a4565b620002f96060830184620002a4565b95945050505050565b60006200030f826200033e565b9050919050565b6000620003238262000302565b9050919050565b6000620003378262000302565b9050919050565b600073ffffffffffffffffffffffffffffffffffffffff82169050919050565b620003698162000316565b81146200037557600080fd5b50565b62000383816200032a565b81146200038f57600080fd5b50565b6129ae80620003a26000396000f3fe6080604052600436106100f75760003560e01c80635589ba391161008a578063bae3872e11610059578063bae3872e146102ae578063dc87d1e7146102c5578063e604cbc4146102f0578063f4fdbb8814610307576100fe565b80635589ba391461022a578063689d82c01461024157806389a302711461026c578063a3f6214214610297576100fe565b80632e45a7b1116100c65780632e45a7b1146101a85780632e64c500146101bf57806330af745f146101fc5780633abe5e1f14610213576100fe565b80630c58c95c146101005780631a38a4fb1461013d5780632236d35314610168578063289cf40c14610191576100fe565b366100fe57005b005b34801561010c57600080fd5b5061012760048036036101229190810190612245565b610344565b60405161013491906126f9565b60405180910390f35b34801561014957600080fd5b50610152610377565b60405161015f91906126de565b60405180910390f35b34801561017457600080fd5b5061018f600480360361018a91908101906122aa565b61039d565b005b34801561019d57600080fd5b506101a66104cd565b005b3480156101b457600080fd5b506101bd610719565b005b3480156101cb57600080fd5b506101e660048036036101e1919081019061226e565b610a03565b6040516101f391906126a8565b60405180910390f35b34801561020857600080fd5b50610211610a32565b005b34801561021f57600080fd5b50610228610eb0565b005b34801561023657600080fd5b5061023f6110fc565b005b34801561024d57600080fd5b5061025661157a565b60405161026391906126de565b60405180910390f35b34801561027857600080fd5b506102816115a0565b60405161028e91906126de565b60405180910390f35b3480156102a357600080fd5b506102ac6115c6565b005b3480156102ba57600080fd5b506102c36118b0565b005b3480156102d157600080fd5b506102da611d2e565b6040516102e791906126c3565b60405180910390f35b3480156102fc57600080fd5b50610305611d53565b005b34801561031357600080fd5b5061032e60048036036103299190810190612245565b6121d1565b60405161033b91906126a8565b60405180910390f35b60056020528060005260406000206000915054906101000a900473ffffffffffffffffffffffffffffffffffffffff1681565b600160009054906101000a900473ffffffffffffffffffffffffffffffffffffffff1681565b600660008273ffffffffffffffffffffffffffffffffffffffff1673ffffffffffffffffffffffffffffffffffffffff16815260200190815260200160002060009054906101000a900460ff16156103f457600080fd5b80600560003373ffffffffffffffffffffffffffffffffffffffff1673ffffffffffffffffffffffffffffffffffffffff16815260200190815260200160002060006101000a81548173ffffffffffffffffffffffffffffffffffffffff021916908373ffffffffffffffffffffffffffffffffffffffff1602179055506001600660008373ffffffffffffffffffffffffffffffffffffffff1673ffffffffffffffffffffffffffffffffffffffff16815260200190815260200160002060006101000a81548160ff02191690831515021790555050565b6000600360009054906101000a900473ffffffffffffffffffffffffffffffffffffffff1673ffffffffffffffffffffffffffffffffffffffff166370a08231336040518263ffffffff1660e01b815260040161052a9190612664565b60206040518083038186803b15801561054257600080fd5b505afa158015610556573d6000803e3d6000fd5b505050506040513d601f19601f8201168201806040525061057a91908101906122d3565b116105ba576040517f08c379a00000000000000000000000000000000000000000000000000000000081526004016105b1906127d4565b60405180910390fd5b600460003373ffffffffffffffffffffffffffffffffffffffff1673ffffffffffffffffffffffffffffffffffffffff16815260200190815260200160002060006002815260200190815260200160002060009054906101000a900460ff16610717576001600460003373ffffffffffffffffffffffffffffffffffffffff1673ffffffffffffffffffffffffffffffffffffffff16815260200190815260200160002060006002815260200190815260200160002060006101000a81548160ff0219169083151502179055506000809054906101000a900473ffffffffffffffffffffffffffffffffffffffff1673ffffffffffffffffffffffffffffffffffffffff1663158a49883360026040518363ffffffff1660e01b81526004016106e492919061267f565b600060405180830381600087803b1580156106fe57600080fd5b505af1158015610712573d6000803e3d6000fd5b505050505b565b600460003373ffffffffffffffffffffffffffffffffffffffff1673ffffffffffffffffffffffffffffffffffffffff16815260200190815260200160002060006002815260200190815260200160002060009054906101000a900460ff166107b7576040517f08c379a00000000000000000000000000000000000000000000000000000000081526004016107ae90612754565b60405180910390fd5b6000600360009054906101000a900473ffffffffffffffffffffffffffffffffffffffff1673ffffffffffffffffffffffffffffffffffffffff166370a08231336040518263ffffffff1660e01b81526004016108149190612664565b60206040518083038186803b15801561082c57600080fd5b505afa158015610840573d6000803e3d6000fd5b505050506040513d601f19601f8201168201806040525061086491908101906122d3565b146108a4576040517f08c379a000000000000000000000000000000000000000000000000000000000815260040161089b90612714565b60405180910390fd5b600460003373ffffffffffffffffffffffffffffffffffffffff1673ffffffffffffffffffffffffffffffffffffffff16815260200190815260200160002060006003815260200190815260200160002060009054906101000a900460ff16610a01576001600460003373ffffffffffffffffffffffffffffffffffffffff1673ffffffffffffffffffffffffffffffffffffffff16815260200190815260200160002060006003815260200190815260200160002060006101000a81548160ff0219169083151502179055506000809054906101000a900473ffffffffffffffffffffffffffffffffffffffff1673ffffffffffffffffffffffffffffffffffffffff1663158a49883360026040518363ffffffff1660e01b81526004016109ce92919061267f565b600060405180830381600087803b1580156109e857600080fd5b505af11580156109fc573d6000803e3d6000fd5b505050505b565b60046020528160005260406000206020528060005260406000206000915091509054906101000a900460ff1681565b6000600360009054906101000a900473ffffffffffffffffffffffffffffffffffffffff1673ffffffffffffffffffffffffffffffffffffffff166370a08231600560003373ffffffffffffffffffffffffffffffffffffffff1673ffffffffffffffffffffffffffffffffffffffff16815260200190815260200160002060009054906101000a900473ffffffffffffffffffffffffffffffffffffffff166040518263ffffffff1660e01b8152600401610aee9190612649565b60206040518083038186803b158015610b0657600080fd5b505afa158015610b1a573d6000803e3d6000fd5b505050506040513d601f19601f82011682018060405250610b3e91908101906122d3565b9050600560003373ffffffffffffffffffffffffffffffffffffffff1673ffffffffffffffffffffffffffffffffffffffff16815260200190815260200160002060009054906101000a900473ffffffffffffffffffffffffffffffffffffffff1673ffffffffffffffffffffffffffffffffffffffff16631a231a716040518163ffffffff1660e01b8152600401600060405180830381600087803b158015610be757600080fd5b505af1158015610bfb573d6000803e3d6000fd5b505050506000600360009054906101000a900473ffffffffffffffffffffffffffffffffffffffff1673ffffffffffffffffffffffffffffffffffffffff166370a08231600560003373ffffffffffffffffffffffffffffffffffffffff1673ffffffffffffffffffffffffffffffffffffffff16815260200190815260200160002060009054906101000a900473ffffffffffffffffffffffffffffffffffffffff166040518263ffffffff1660e01b8152600401610cbb9190612649565b60206040518083038186803b158015610cd357600080fd5b505afa158015610ce7573d6000803e3d6000fd5b505050506040513d601f19601f82011682018060405250610d0b91908101906122d3565b9050808210610d4f576040517f08c379a0000000000000000000000000000000000000000000000000000000008152600401610d4690612734565b60405180910390fd5b600460003373ffffffffffffffffffffffffffffffffffffffff1673ffffffffffffffffffffffffffffffffffffffff16815260200190815260200160002060006006815260200190815260200160002060009054906101000a900460ff16610eac576001600460003373ffffffffffffffffffffffffffffffffffffffff1673ffffffffffffffffffffffffffffffffffffffff16815260200190815260200160002060006006815260200190815260200160002060006101000a81548160ff0219169083151502179055506000809054906101000a900473ffffffffffffffffffffffffffffffffffffffff1673ffffffffffffffffffffffffffffffffffffffff1663158a49883360026040518363ffffffff1660e01b8152600401610e7992919061267f565b600060405180830381600087803b158015610e9357600080fd5b505af1158015610ea7573d6000803e3d6000fd5b505050505b5050565b6000600160009054906101000a900473ffffffffffffffffffffffffffffffffffffffff1673ffffffffffffffffffffffffffffffffffffffff166370a08231336040518263ffffffff1660e01b8152600401610f0d9190612664565b60206040518083038186803b158015610f2557600080fd5b505afa158015610f39573d6000803e3d6000fd5b505050506040513d601f19601f82011682018060405250610f5d91908101906122d3565b11610f9d576040517f08c379a0000000000000000000000000000000000000000000000000000000008152600401610f9490612714565b60405180910390fd5b600460003373ffffffffffffffffffffffffffffffffffffffff1673ffffffffffffffffffffffffffffffffffffffff16815260200190815260200160002060006001815260200190815260200160002060009054906101000a900460ff166110fa576001600460003373ffffffffffffffffffffffffffffffffffffffff1673ffffffffffffffffffffffffffffffffffffffff16815260200190815260200160002060006001815260200190815260200160002060006101000a81548160ff0219169083151502179055506000809054906101000a900473ffffffffffffffffffffffffffffffffffffffff1673ffffffffffffffffffffffffffffffffffffffff1663158a49883360026040518363ffffffff1660e01b81526004016110c792919061267f565b600060405180830381600087803b1580156110e157600080fd5b505af11580156110f5573d6000803e3d6000fd5b505050505b565b6000600360009054906101000a900473ffffffffffffffffffffffffffffffffffffffff1673ffffffffffffffffffffffffffffffffffffffff166370a08231600560003373ffffffffffffffffffffffffffffffffffffffff1673ffffffffffffffffffffffffffffffffffffffff16815260200190815260200160002060009054906101000a900473ffffffffffffffffffffffffffffffffffffffff166040518263ffffffff1660e01b81526004016111b89190612649565b60206040518083038186803b1580156111d057600080fd5b505afa1580156111e4573d6000803e3d6000fd5b505050506040513d601f19601f8201168201806040525061120891908101906122d3565b9050600560003373ffffffffffffffffffffffffffffffffffffffff1673ffffffffffffffffffffffffffffffffffffffff16815260200190815260200160002060009054906101000a900473ffffffffffffffffffffffffffffffffffffffff1673ffffffffffffffffffffffffffffffffffffffff16634b5bd34f6040518163ffffffff1660e01b8152600401600060405180830381600087803b1580156112b157600080fd5b505af11580156112c5573d6000803e3d6000fd5b505050506000600360009054906101000a900473ffffffffffffffffffffffffffffffffffffffff1673ffffffffffffffffffffffffffffffffffffffff166370a08231600560003373ffffffffffffffffffffffffffffffffffffffff1673ffffffffffffffffffffffffffffffffffffffff16815260200190815260200160002060009054906101000a900473ffffffffffffffffffffffffffffffffffffffff166040518263ffffffff1660e01b81526004016113859190612649565b60206040518083038186803b15801561139d57600080fd5b505afa1580156113b1573d6000803e3d6000fd5b505050506040513d601f19601f820116820180604052506113d591908101906122d3565b9050808211611419576040517f08c379a0000000000000000000000000000000000000000000000000000000008152600401611410906127b4565b60405180910390fd5b600460003373ffffffffffffffffffffffffffffffffffffffff1673ffffffffffffffffffffffffffffffffffffffff16815260200190815260200160002060006007815260200190815260200160002060009054906101000a900460ff16611576576001600460003373ffffffffffffffffffffffffffffffffffffffff1673ffffffffffffffffffffffffffffffffffffffff16815260200190815260200160002060006007815260200190815260200160002060006101000a81548160ff0219169083151502179055506000809054906101000a900473ffffffffffffffffffffffffffffffffffffffff1673ffffffffffffffffffffffffffffffffffffffff1663158a49883360026040518363ffffffff1660e01b815260040161154392919061267f565b600060405180830381600087803b15801561155d57600080fd5b505af1158015611571573d6000803e3d6000fd5b505050505b5050565b600360009054906101000a900473ffffffffffffffffffffffffffffffffffffffff1681565b600260009054906101000a900473ffffffffffffffffffffffffffffffffffffffff1681565b600460003373ffffffffffffffffffffffffffffffffffffffff1673ffffffffffffffffffffffffffffffffffffffff16815260200190815260200160002060006001815260200190815260200160002060009054906101000a900460ff16611664576040517f08c379a000000000000000000000000000000000000000000000000000000000815260040161165b906127f4565b60405180910390fd5b6000600160009054906101000a900473ffffffffffffffffffffffffffffffffffffffff1673ffffffffffffffffffffffffffffffffffffffff166370a08231336040518263ffffffff1660e01b81526004016116c19190612664565b60206040518083038186803b1580156116d957600080fd5b505afa1580156116ed573d6000803e3d6000fd5b505050506040513d601f19601f8201168201806040525061171191908101906122d3565b14611751576040517f08c379a000000000000000000000000000000000000000000000000000000000815260040161174890612714565b60405180910390fd5b600460003373ffffffffffffffffffffffffffffffffffffffff1673ffffffffffffffffffffffffffffffffffffffff16815260200190815260200160002060006004815260200190815260200160002060009054906101000a900460ff166118ae576001600460003373ffffffffffffffffffffffffffffffffffffffff1673ffffffffffffffffffffffffffffffffffffffff16815260200190815260200160002060006004815260200190815260200160002060006101000a81548160ff0219169083151502179055506000809054906101000a900473ffffffffffffffffffffffffffffffffffffffff1673ffffffffffffffffffffffffffffffffffffffff1663158a49883360026040518363ffffffff1660e01b815260040161187b92919061267f565b600060405180830381600087803b15801561189557600080fd5b505af11580156118a9573d6000803e3d6000fd5b505050505b565b6000600160009054906101000a900473ffffffffffffffffffffffffffffffffffffffff1673ffffffffffffffffffffffffffffffffffffffff166370a08231600560003373ffffffffffffffffffffffffffffffffffffffff1673ffffffffffffffffffffffffffffffffffffffff16815260200190815260200160002060009054906101000a900473ffffffffffffffffffffffffffffffffffffffff166040518263ffffffff1660e01b815260040161196c9190612649565b60206040518083038186803b15801561198457600080fd5b505afa158015611998573d6000803e3d6000fd5b505050506040513d601f19601f820116820180604052506119bc91908101906122d3565b9050600560003373ffffffffffffffffffffffffffffffffffffffff1673ffffffffffffffffffffffffffffffffffffffff16815260200190815260200160002060009054906101000a900473ffffffffffffffffffffffffffffffffffffffff1673ffffffffffffffffffffffffffffffffffffffff1663db50609f6040518163ffffffff1660e01b8152600401600060405180830381600087803b158015611a6557600080fd5b505af1158015611a79573d6000803e3d6000fd5b505050506000600160009054906101000a900473ffffffffffffffffffffffffffffffffffffffff1673ffffffffffffffffffffffffffffffffffffffff166370a08231600560003373ffffffffffffffffffffffffffffffffffffffff1673ffffffffffffffffffffffffffffffffffffffff16815260200190815260200160002060009054906101000a900473ffffffffffffffffffffffffffffffffffffffff166040518263ffffffff1660e01b8152600401611b399190612649565b60206040518083038186803b158015611b5157600080fd5b505afa158015611b65573d6000803e3d6000fd5b505050506040513d601f19601f82011682018060405250611b8991908101906122d3565b9050808211611bcd576040517f08c379a0000000000000000000000000000000000000000000000000000000008152600401611bc490612794565b60405180910390fd5b600460003373ffffffffffffffffffffffffffffffffffffffff1673ffffffffffffffffffffffffffffffffffffffff16815260200190815260200160002060006008815260200190815260200160002060009054906101000a900460ff16611d2a576001600460003373ffffffffffffffffffffffffffffffffffffffff1673ffffffffffffffffffffffffffffffffffffffff16815260200190815260200160002060006008815260200190815260200160002060006101000a81548160ff0219169083151502179055506000809054906101000a900473ffffffffffffffffffffffffffffffffffffffff1673ffffffffffffffffffffffffffffffffffffffff1663158a49883360026040518363ffffffff1660e01b8152600401611cf792919061267f565b600060405180830381600087803b158015611d1157600080fd5b505af1158015611d25573d6000803e3d6000fd5b505050505b5050565b6000809054906101000a900473ffffffffffffffffffffffffffffffffffffffff1681565b6000600160009054906101000a900473ffffffffffffffffffffffffffffffffffffffff1673ffffffffffffffffffffffffffffffffffffffff166370a08231600560003373ffffffffffffffffffffffffffffffffffffffff1673ffffffffffffffffffffffffffffffffffffffff16815260200190815260200160002060009054906101000a900473ffffffffffffffffffffffffffffffffffffffff166040518263ffffffff1660e01b8152600401611e0f9190612649565b60206040518083038186803b158015611e2757600080fd5b505afa158015611e3b573d6000803e3d6000fd5b505050506040513d601f19601f82011682018060405250611e5f91908101906122d3565b9050600560003373ffffffffffffffffffffffffffffffffffffffff1673ffffffffffffffffffffffffffffffffffffffff16815260200190815260200160002060009054906101000a900473ffffffffffffffffffffffffffffffffffffffff1673ffffffffffffffffffffffffffffffffffffffff1663f6b96bae6040518163ffffffff1660e01b8152600401600060405180830381600087803b158015611f0857600080fd5b505af1158015611f1c573d6000803e3d6000fd5b505050506000600160009054906101000a900473ffffffffffffffffffffffffffffffffffffffff1673ffffffffffffffffffffffffffffffffffffffff166370a08231600560003373ffffffffffffffffffffffffffffffffffffffff1673ffffffffffffffffffffffffffffffffffffffff16815260200190815260200160002060009054906101000a900473ffffffffffffffffffffffffffffffffffffffff166040518263ffffffff1660e01b8152600401611fdc9190612649565b60206040518083038186803b158015611ff457600080fd5b505afa158015612008573d6000803e3d6000fd5b505050506040513d601f19601f8201168201806040525061202c91908101906122d3565b9050808210612070576040517f08c379a000000000000000000000000000000000000000000000000000000000815260040161206790612774565b60405180910390fd5b600460003373ffffffffffffffffffffffffffffffffffffffff1673ffffffffffffffffffffffffffffffffffffffff16815260200190815260200160002060006005815260200190815260200160002060009054906101000a900460ff166121cd576001600460003373ffffffffffffffffffffffffffffffffffffffff1673ffffffffffffffffffffffffffffffffffffffff16815260200190815260200160002060006005815260200190815260200160002060006101000a81548160ff0219169083151502179055506000809054906101000a900473ffffffffffffffffffffffffffffffffffffffff1673ffffffffffffffffffffffffffffffffffffffff1663158a49883360026040518363ffffffff1660e01b815260040161219a92919061267f565b600060405180830381600087803b1580156121b457600080fd5b505af11580156121c8573d6000803e3d6000fd5b505050505b5050565b60066020528060005260406000206000915054906101000a900460ff1681565b60008135905061220081612933565b92915050565b6000813590506122158161294a565b92915050565b60008135905061222a81612961565b92915050565b60008151905061223f81612961565b92915050565b60006020828403121561225757600080fd5b6000612265848285016121f1565b91505092915050565b6000806040838503121561228157600080fd5b600061228f858286016121f1565b92505060206122a08582860161221b565b9150509250929050565b6000602082840312156122bc57600080fd5b60006122ca84828501612206565b91505092915050565b6000602082840312156122e557600080fd5b60006122f384828501612230565b91505092915050565b6123058161287f565b82525050565b61231481612825565b82525050565b61232381612837565b82525050565b61233281612891565b82525050565b612341816128b5565b82525050565b612350816128d9565b82525050565b61235f816128fd565b82525050565b6000612372602483612814565b91507f53656e64657220686173206e6f74206465706f73697465642044414920696e2060008301527f41415645000000000000000000000000000000000000000000000000000000006020830152604082019050919050565b60006123d8602383612814565b91507f596f757220636f6e747261637420646964206e6f7420626f72726f7720746f6b60008301527f656e7300000000000000000000000000000000000000000000000000000000006020830152604082019050919050565b600061243e601d83612814565b91507f596f752073686f756c64206861766520636f6d706c65746564206578320000006000830152602082019050919050565b600061247e602483612814565b91507f596f757220636f6e747261637420646964206e6f74206465706f73697420746f60008301527f6b656e73000000000000000000000000000000000000000000000000000000006020830152604082019050919050565b60006124e4602983612814565b91507f596f757220636f6e747261637420646964206e6f74207769746864726177206960008301527f747320746f6b656e7300000000000000000000000000000000000000000000006020830152604082019050919050565b600061254a602683612814565b91507f596f757220636f6e747261637420646964206e6f74207265706179206974732060008301527f746f6b656e7300000000000000000000000000000000000000000000000000006020830152604082019050919050565b60006125b0602483612814565b91507f53656e64657220686173206e6f7420626f72726f776564205553444320696e2060008301527f41415645000000000000000000000000000000000000000000000000000000006020830152604082019050919050565b6000612616601d83612814565b91507f596f752073686f756c64206861766520636f6d706c65746564206578310000006000830152602082019050919050565b600060208201905061265e600083018461230b565b92915050565b600060208201905061267960008301846122fc565b92915050565b600060408201905061269460008301856122fc565b6126a16020830184612356565b9392505050565b60006020820190506126bd600083018461231a565b92915050565b60006020820190506126d86000830184612329565b92915050565b60006020820190506126f36000830184612338565b92915050565b600060208201905061270e6000830184612347565b92915050565b6000602082019050818103600083015261272d81612365565b9050919050565b6000602082019050818103600083015261274d816123cb565b9050919050565b6000602082019050818103600083015261276d81612431565b9050919050565b6000602082019050818103600083015261278d81612471565b9050919050565b600060208201905081810360008301526127ad816124d7565b9050919050565b600060208201905081810360008301526127cd8161253d565b9050919050565b600060208201905081810360008301526127ed816125a3565b9050919050565b6000602082019050818103600083015261280d81612609565b9050919050565b600082825260208201905092915050565b600061283082612855565b9050919050565b60008115159050919050565b600061284e82612825565b9050919050565b600073ffffffffffffffffffffffffffffffffffffffff82169050919050565b6000819050919050565b600061288a8261290f565b9050919050565b600061289c826128a3565b9050919050565b60006128ae82612855565b9050919050565b60006128c0826128c7565b9050919050565b60006128d282612855565b9050919050565b60006128e4826128eb565b9050919050565b60006128f682612855565b9050919050565b600061290882612875565b9050919050565b600061291a82612921565b9050919050565b600061292c82612855565b9050919050565b61293c81612825565b811461294757600080fd5b50565b61295381612843565b811461295e57600080fd5b50565b61296a81612875565b811461297557600080fd5b5056fea2646970667358221220da2dd717396270044349d2ed6c49acb12b3fd3f8dec53f65f9a807fcfa3be63964736f6c63430006020033",
  "source": "pragma solidity ^0.6.0;\npragma experimental ABIEncoderV2;\n\nimport \"./ERC20TD.sol\";\nimport \"./IExerciceSolution.sol\";\nimport \"@openzeppelin/contracts/token/ERC20/IERC20.sol\";\n\n// import \"./utils/IUniswapV2Factory.sol\";\n// import \"./utils/IUniswapV2Pair.sol\";\n\ncontract Evaluator \n{\n\n\tERC20TD public TDAAVE;\n\tIERC20 public aDAI;\n\tIERC20 public USDC;\n\tIERC20 public variableDebtUSDC;\n\n \tmapping(address => mapping(uint256 => bool)) public exerciceProgression;\n \tmapping(address => IExerciceSolution) public studentExercice;\n \tmapping(address => bool) public hasBeenPaired;\n\n \tevent constructedCorrectly(address erc20Address, address adaiAddress, address aUsdcAddress, address variableDebtUSDCAddress);\n\tconstructor(ERC20TD _TDAAVE, IERC20 _aDAI, IERC20 _USDC, IERC20 _variableDebtUSDC) \n\tpublic \n\t{\n\t\tTDAAVE = _TDAAVE;\n\t\taDAI = _aDAI;\n\t\tUSDC = _USDC;\n\t\tvariableDebtUSDC = _variableDebtUSDC;\n\t\temit constructedCorrectly(address(TDAAVE), address(aDAI), address(USDC), address(variableDebtUSDC));\n\n\t}\n\n\tfallback () external payable \n\t{}\n\n\treceive () external payable \n\t{}\n\n\tfunction ex1_showIDepositedTokens()\n\tpublic\n\t{\n\n\t\t// Sender should have deposited testnet aDAI\n\t\trequire(aDAI.balanceOf(msg.sender) > 0, \"Sender has not deposited DAI in AAVE\");\n\n\t\t// Distributing points\n\t\tif (!exerciceProgression[msg.sender][1])\n\t\t{\n\t\t\texerciceProgression[msg.sender][1] = true;\n\t\t\tTDAAVE.distributeTokens(msg.sender, 2);\n\t\t}\n\n\t}\n\n\tfunction ex2_showIBorrowedTokens()\n\tpublic\n\t{\n\n\t\t// Sender should have borrowed USDC on AAVE \n\t\trequire(variableDebtUSDC.balanceOf(msg.sender) > 0, \"Sender has not borrowed USDC in AAVE\");\n\n\t\t// Distributing points\n\t\tif (!exerciceProgression[msg.sender][2])\n\t\t{\n\t\t\texerciceProgression[msg.sender][2] = true;\n\t\t\tTDAAVE.distributeTokens(msg.sender, 2);\n\t\t}\n\n\t}\n\n\tfunction ex3_showIRepaidTokens()\n\tpublic\n\t{\n\n\t\trequire(exerciceProgression[msg.sender][2], \"You should have completed ex2\");\n\t\t// // Sender should repaid his testnet USDC\n\t\trequire(variableDebtUSDC.balanceOf(msg.sender) == 0, \"Sender has not deposited DAI in AAVE\");\n\n\t\t// Distributing points\n\t\tif (!exerciceProgression[msg.sender][3])\n\t\t{\n\t\t\texerciceProgression[msg.sender][3] = true;\n\t\t\tTDAAVE.distributeTokens(msg.sender, 2);\n\t\t}\n\n\t}\n\n\tfunction ex4_showIWithdrewTokens()\n\tpublic\n\t{\n\n\t\trequire(exerciceProgression[msg.sender][1], \"You should have completed ex1\");\n\n\t\t// // Sender should have no more testnet aDAI\n\t\trequire(aDAI.balanceOf(msg.sender) == 0, \"Sender has not deposited DAI in AAVE\");\n\n\t\t// Distributing points\n\t\tif (!exerciceProgression[msg.sender][4])\n\t\t{\n\t\t\texerciceProgression[msg.sender][4] = true;\n\t\t\tTDAAVE.distributeTokens(msg.sender, 2);\n\t\t}\n\n\t}\n\n\tfunction ex5_showContractCanDepositTokens()\n\tpublic\n\t{\n\t\t// Reading initial aDai balance\n\t\tuint256 initialBalance = aDAI.balanceOf(address(studentExercice[msg.sender]));\n\n\t\t// Trigger token deposit function\n\t\tstudentExercice[msg.sender].depositSomeTokens();\n\n\t\t// Read end balance\n\t\tuint256 endBalance = aDAI.balanceOf(address(studentExercice[msg.sender]));\n\n\t\t// Verify that contract did borrow\n\t\trequire(initialBalance < endBalance, \"Your contract did not deposit tokens\");\n\n\t\t// Distributing points\n\t\tif (!exerciceProgression[msg.sender][5])\n\t\t{\n\t\t\texerciceProgression[msg.sender][5] = true;\n\t\t\tTDAAVE.distributeTokens(msg.sender, 2);\n\t\t}\n\t}\n\n\tfunction ex6_showContractCanBorrowTokens()\n\tpublic\n\t{\n\t\t// Reading initial variableDebtUSDC balance\n\t\tuint256 initialBalance = variableDebtUSDC.balanceOf(address(studentExercice[msg.sender]));\n\n\t\t// Trigger token deposit function\n\t\tstudentExercice[msg.sender].borrowSomeTokens();\n\n\t\t// Read end balance\n\t\tuint256 endBalance = variableDebtUSDC.balanceOf(address(studentExercice[msg.sender]));\n\n\t\t// Verify that contract did borrow\n\t\trequire(initialBalance < endBalance, \"Your contract did not borrow tokens\");\n\n\t\t// Distributing points\n\t\tif (!exerciceProgression[msg.sender][6])\n\t\t{\n\t\t\texerciceProgression[msg.sender][6] = true;\n\t\t\tTDAAVE.distributeTokens(msg.sender, 2);\n\t\t}\n\t}\n\n\tfunction ex9_showContractCanRepayTokens()\n\tpublic\n\t{\n\t\t// Reading initial variableDebtUSDC balance\n\t\tuint256 initialBalance = variableDebtUSDC.balanceOf(address(studentExercice[msg.sender]));\n\n\t\t// Trigger token deposit function\n\t\tstudentExercice[msg.sender].repaySomeTokens();\n\n\t\t// Read end balance\n\t\tuint256 endBalance = variableDebtUSDC.balanceOf(address(studentExercice[msg.sender]));\n\n\t\t// Verify that contract did borrow\n\t\trequire(initialBalance > endBalance, \"Your contract did not repay its tokens\");\n\n\t\t// Distributing points\n\t\tif (!exerciceProgression[msg.sender][7])\n\t\t{\n\t\t\texerciceProgression[msg.sender][7] = true;\n\t\t\tTDAAVE.distributeTokens(msg.sender, 2);\n\t\t}\n\t}\n\n\tfunction ex8_showContractCanWithdrawTokens()\n\tpublic\n\t{\n\t\t// Reading initial aDai balance\n\t\tuint256 initialBalance = aDAI.balanceOf(address(studentExercice[msg.sender]));\n\n\t\t// Trigger token deposit function\n\t\tstudentExercice[msg.sender].withdrawSomeTokens();\n\n\t\t// Read end balance\n\t\tuint256 endBalance = aDAI.balanceOf(address(studentExercice[msg.sender]));\n\n\t\t// Verify that contract did borrow\n\t\trequire(initialBalance > endBalance, \"Your contract did not withdraw its tokens\");\n\n\t\t// Distributing points\n\t\tif (!exerciceProgression[msg.sender][8])\n\t\t{\n\t\t\texerciceProgression[msg.sender][8] = true;\n\t\t\tTDAAVE.distributeTokens(msg.sender, 2);\n\t\t}\n\t}\n\n\n\tmodifier onlyTeachers() \n\t{\n\n\t    require(TDAAVE.teachers(msg.sender));\n\t    _;\n\t}\n\n\tfunction submitExercice(IExerciceSolution studentExercice_)\n\tpublic\n\t{\n\t\t// Checking this contract was not used by another group before\n\t\trequire(!hasBeenPaired[address(studentExercice_)]);\n\n\t\t// Assigning passed ERC20 as student ERC20\n\t\tstudentExercice[msg.sender] = studentExercice_;\n\t\thasBeenPaired[address(studentExercice_)] = true;\n\t\t\t\n\t}\n\n}\n",
  "sourcePath": "/Users/henrilieutaud/Documents/Mes documents/ESILV/Workshop/lending-101/contracts/Evaluator.sol",
  "compiler": {
    "name": "solc",
    "version": "0.6.2+commit.bacdbe57.Emscripten.clang"
  },
  "schemaVersion": "3.3.4",
  "updatedAt": "2022-01-14T10:07:20.248Z",
  "devdoc": {
    "methods": {}
  },
  "userdoc": {
    "methods": {}
  }
}