{
  "contractName": "Evaluator",
  "abi": [
    {
      "inputs": [
        {
          "internalType": "contract ERC20TD",
          "name": "_TDAAVE",
          "type": "address"
        },
        {
          "internalType": "contract IERC20",
          "name": "_aDAI",
          "type": "address"
        },
        {
          "internalType": "contract IERC20",
          "name": "_USDC",
          "type": "address"
        },
        {
          "internalType": "contract IERC20",
          "name": "_variableDebtUSDC",
          "type": "address"
        },
        {
          "internalType": "address",
          "name": "_AAVEPool",
          "type": "address"
        }
      ],
      "stateMutability": "nonpayable",
      "type": "constructor"
    },
    {
      "anonymous": false,
      "inputs": [
        {
          "indexed": false,
          "internalType": "address",
          "name": "erc20Address",
          "type": "address"
        },
        {
          "indexed": false,
          "internalType": "address",
          "name": "adaiAddress",
          "type": "address"
        },
        {
          "indexed": false,
          "internalType": "address",
          "name": "UsdcAddress",
          "type": "address"
        },
        {
          "indexed": false,
          "internalType": "address",
          "name": "variableDebtUSDCAddress",
          "type": "address"
        }
      ],
      "name": "constructedCorrectly",
      "type": "event"
    },
    {
      "stateMutability": "payable",
      "type": "fallback",
      "payable": true
    },
    {
      "inputs": [],
      "name": "AAVEPool",
      "outputs": [
        {
          "internalType": "address",
          "name": "",
          "type": "address"
        }
      ],
      "stateMutability": "view",
      "type": "function",
      "constant": true
    },
    {
      "inputs": [],
      "name": "TDAAVE",
      "outputs": [
        {
          "internalType": "contract ERC20TD",
          "name": "",
          "type": "address"
        }
      ],
      "stateMutability": "view",
      "type": "function",
      "constant": true
    },
    {
      "inputs": [],
      "name": "USDC",
      "outputs": [
        {
          "internalType": "contract IERC20",
          "name": "",
          "type": "address"
        }
      ],
      "stateMutability": "view",
      "type": "function",
      "constant": true
    },
    {
      "inputs": [],
      "name": "aDAI",
      "outputs": [
        {
          "internalType": "contract IERC20",
          "name": "",
          "type": "address"
        }
      ],
      "stateMutability": "view",
      "type": "function",
      "constant": true
    },
    {
      "inputs": [
        {
          "internalType": "address",
          "name": "",
          "type": "address"
        },
        {
          "internalType": "uint256",
          "name": "",
          "type": "uint256"
        }
      ],
      "name": "exerciceProgression",
      "outputs": [
        {
          "internalType": "bool",
          "name": "",
          "type": "bool"
        }
      ],
      "stateMutability": "view",
      "type": "function",
      "constant": true
    },
    {
      "inputs": [
        {
          "internalType": "address",
          "name": "",
          "type": "address"
        }
      ],
      "name": "hasBeenPaired",
      "outputs": [
        {
          "internalType": "bool",
          "name": "",
          "type": "bool"
        }
      ],
      "stateMutability": "view",
      "type": "function",
      "constant": true
    },
    {
      "inputs": [
        {
          "internalType": "address",
          "name": "",
          "type": "address"
        }
      ],
      "name": "studentExercice",
      "outputs": [
        {
          "internalType": "contract IExerciceSolution",
          "name": "",
          "type": "address"
        }
      ],
      "stateMutability": "view",
      "type": "function",
      "constant": true
    },
    {
      "inputs": [],
      "name": "variableDebtUSDC",
      "outputs": [
        {
          "internalType": "contract IERC20",
          "name": "",
          "type": "address"
        }
      ],
      "stateMutability": "view",
      "type": "function",
      "constant": true
    },
    {
      "stateMutability": "payable",
      "type": "receive",
      "payable": true
    },
    {
      "inputs": [],
      "name": "ex1_showIDepositedTokens",
      "outputs": [],
      "stateMutability": "nonpayable",
      "type": "function"
    },
    {
      "inputs": [],
      "name": "ex2_showIBorrowedTokens",
      "outputs": [],
      "stateMutability": "nonpayable",
      "type": "function"
    },
    {
      "inputs": [],
      "name": "ex3_showIRepaidTokens",
      "outputs": [],
      "stateMutability": "nonpayable",
      "type": "function"
    },
    {
      "inputs": [],
      "name": "ex4_showIWithdrewTokens",
      "outputs": [],
      "stateMutability": "nonpayable",
      "type": "function"
    },
    {
      "inputs": [],
      "name": "ex5_showContractCanDepositTokens",
      "outputs": [],
      "stateMutability": "nonpayable",
      "type": "function"
    },
    {
      "inputs": [],
      "name": "ex6_showContractCanBorrowTokens",
      "outputs": [],
      "stateMutability": "nonpayable",
      "type": "function"
    },
    {
      "inputs": [],
      "name": "ex7_showContractCanRepayTokens",
      "outputs": [],
      "stateMutability": "nonpayable",
      "type": "function"
    },
    {
      "inputs": [],
      "name": "ex8_showContractCanWithdrawTokens",
      "outputs": [],
      "stateMutability": "nonpayable",
      "type": "function"
    },
    {
      "inputs": [
        {
          "internalType": "address",
          "name": "asset",
          "type": "address"
        },
        {
          "internalType": "uint256",
          "name": "amount",
          "type": "uint256"
        },
        {
          "internalType": "uint256",
          "name": "premium",
          "type": "uint256"
        },
        {
          "internalType": "address",
          "name": "initiator",
          "type": "address"
        },
        {
          "internalType": "bytes",
          "name": "params",
          "type": "bytes"
        }
      ],
      "name": "executeOperation",
      "outputs": [
        {
          "internalType": "bool",
          "name": "",
          "type": "bool"
        }
      ],
      "stateMutability": "nonpayable",
      "type": "function"
    },
    {
      "inputs": [
        {
          "internalType": "address",
          "name": "studentAddress",
          "type": "address"
        }
      ],
      "name": "ex9_performFlashLoan",
      "outputs": [],
      "stateMutability": "nonpayable",
      "type": "function"
    },
    {
      "inputs": [
        {
          "internalType": "contract IExerciceSolution",
          "name": "studentExercice_",
          "type": "address"
        }
      ],
      "name": "submitExercice",
      "outputs": [],
      "stateMutability": "nonpayable",
      "type": "function"
    }
  ],
  "bytecode": "0x60806040523480156200001157600080fd5b50604051620033f3380380620033f3833981810160405262000037919081019062000291565b846000806101000a81548173ffffffffffffffffffffffffffffffffffffffff021916908373ffffffffffffffffffffffffffffffffffffffff16021790555083600160006101000a81548173ffffffffffffffffffffffffffffffffffffffff021916908373ffffffffffffffffffffffffffffffffffffffff16021790555082600260006101000a81548173ffffffffffffffffffffffffffffffffffffffff021916908373ffffffffffffffffffffffffffffffffffffffff16021790555081600360006101000a81548173ffffffffffffffffffffffffffffffffffffffff021916908373ffffffffffffffffffffffffffffffffffffffff16021790555080600460006101000a81548173ffffffffffffffffffffffffffffffffffffffff021916908373ffffffffffffffffffffffffffffffffffffffff1602179055507f82169bf8e2a940653a3005b8fbe3a01d8ab56fd5bbbcd0bf31ac67b29cee1f976000809054906101000a900473ffffffffffffffffffffffffffffffffffffffff16600160009054906101000a900473ffffffffffffffffffffffffffffffffffffffff16600260009054906101000a900473ffffffffffffffffffffffffffffffffffffffff16600360009054906101000a900473ffffffffffffffffffffffffffffffffffffffff1660405162000239949392919062000324565b60405180910390a150505050506200041b565b6000815190506200025d81620003cd565b92915050565b6000815190506200027481620003e7565b92915050565b6000815190506200028b8162000401565b92915050565b600080600080600060a08688031215620002aa57600080fd5b6000620002ba8882890162000263565b9550506020620002cd888289016200027a565b9450506040620002e0888289016200027a565b9350506060620002f3888289016200027a565b925050608062000306888289016200024c565b9150509295509295909350565b6200031e8162000371565b82525050565b60006080820190506200033b600083018762000313565b6200034a602083018662000313565b62000359604083018562000313565b62000368606083018462000313565b95945050505050565b60006200037e82620003ad565b9050919050565b6000620003928262000371565b9050919050565b6000620003a68262000371565b9050919050565b600073ffffffffffffffffffffffffffffffffffffffff82169050919050565b620003d88162000371565b8114620003e457600080fd5b50565b620003f28162000385565b8114620003fe57600080fd5b50565b6200040c8162000399565b81146200041857600080fd5b50565b612fc8806200042b6000396000f3fe6080604052600436106101185760003560e01c80635f00f322116100a0578063a3f6214211610064578063a3f6214214610349578063bae3872e14610360578063dc87d1e714610377578063e604cbc4146103a2578063f4fdbb88146103b95761011f565b80635f00f32214610288578063689d82c01461029f5780636b732488146102ca57806389a30271146102f557806397b74d4a146103205761011f565b8063289cf40c116100e7578063289cf40c146101ef5780632e45a7b1146102065780632e64c5001461021d57806330af745f1461025a5780633abe5e1f146102715761011f565b80630c58c95c146101215780631a38a4fb1461015e5780631b11d0ff146101895780632236d353146101c65761011f565b3661011f57005b005b34801561012d57600080fd5b506101486004803603610143919081019061261a565b6103f6565b6040516101559190612c99565b60405180910390f35b34801561016a57600080fd5b50610173610429565b6040516101809190612c7e565b60405180910390f35b34801561019557600080fd5b506101b060048036036101ab919081019061267f565b61044f565b6040516101bd9190612c48565b60405180910390f35b3480156101d257600080fd5b506101ed60048036036101e8919081019061273a565b6106ea565b005b3480156101fb57600080fd5b5061020461081a565b005b34801561021257600080fd5b5061021b610a66565b005b34801561022957600080fd5b50610244600480360361023f9190810190612643565b610d50565b6040516102519190612c48565b60405180910390f35b34801561026657600080fd5b5061026f610d7f565b005b34801561027d57600080fd5b506102866111fd565b005b34801561029457600080fd5b5061029d611449565b005b3480156102ab57600080fd5b506102b46118c7565b6040516102c19190612c7e565b60405180910390f35b3480156102d657600080fd5b506102df6118ed565b6040516102ec9190612b64565b60405180910390f35b34801561030157600080fd5b5061030a611913565b6040516103179190612c7e565b60405180910390f35b34801561032c57600080fd5b506103476004803603610342919081019061261a565b611939565b005b34801561035557600080fd5b5061035e61193c565b005b34801561036c57600080fd5b50610375611c26565b005b34801561038357600080fd5b5061038c6120a4565b6040516103999190612c63565b60405180910390f35b3480156103ae57600080fd5b506103b76120c9565b005b3480156103c557600080fd5b506103e060048036036103db919081019061261a565b612547565b6040516103ed9190612c48565b60405180910390f35b60066020528060005260406000206000915054906101000a900473ffffffffffffffffffffffffffffffffffffffff1681565b600160009054906101000a900473ffffffffffffffffffffffffffffffffffffffff1681565b6000600460009054906101000a900473ffffffffffffffffffffffffffffffffffffffff1673ffffffffffffffffffffffffffffffffffffffff163373ffffffffffffffffffffffffffffffffffffffff16146104ab57600080fd5b600560008573ffffffffffffffffffffffffffffffffffffffff1673ffffffffffffffffffffffffffffffffffffffff16815260200190815260200160002060006009815260200190815260200160002060009054906101000a900460ff16610608576001600560008673ffffffffffffffffffffffffffffffffffffffff1673ffffffffffffffffffffffffffffffffffffffff16815260200190815260200160002060006009815260200190815260200160002060006101000a81548160ff0219169083151502179055506000809054906101000a900473ffffffffffffffffffffffffffffffffffffffff1673ffffffffffffffffffffffffffffffffffffffff1663158a49888560046040518363ffffffff1660e01b81526004016105d5929190612bc3565b600060405180830381600087803b1580156105ef57600080fd5b505af1158015610603573d6000803e3d6000fd5b505050505b8373ffffffffffffffffffffffffffffffffffffffff16631b11d0ff8888888888886040518763ffffffff1660e01b815260040161064b96959493929190612bec565b602060405180830381600087803b15801561066557600080fd5b505af1158015610679573d6000803e3d6000fd5b505050506040513d601f19601f8201168201806040525061069d9190810190612711565b6106dc576040517f08c379a00000000000000000000000000000000000000000000000000000000081526004016106d390612cd4565b60405180910390fd5b600190509695505050505050565b600760008273ffffffffffffffffffffffffffffffffffffffff1673ffffffffffffffffffffffffffffffffffffffff16815260200190815260200160002060009054906101000a900460ff161561074157600080fd5b80600660003373ffffffffffffffffffffffffffffffffffffffff1673ffffffffffffffffffffffffffffffffffffffff16815260200190815260200160002060006101000a81548173ffffffffffffffffffffffffffffffffffffffff021916908373ffffffffffffffffffffffffffffffffffffffff1602179055506001600760008373ffffffffffffffffffffffffffffffffffffffff1673ffffffffffffffffffffffffffffffffffffffff16815260200190815260200160002060006101000a81548160ff02191690831515021790555050565b6000600360009054906101000a900473ffffffffffffffffffffffffffffffffffffffff1673ffffffffffffffffffffffffffffffffffffffff166370a08231336040518263ffffffff1660e01b81526004016108779190612b7f565b60206040518083038186803b15801561088f57600080fd5b505afa1580156108a3573d6000803e3d6000fd5b505050506040513d601f19601f820116820180604052506108c79190810190612763565b11610907576040517f08c379a00000000000000000000000000000000000000000000000000000000081526004016108fe90612d94565b60405180910390fd5b600560003373ffffffffffffffffffffffffffffffffffffffff1673ffffffffffffffffffffffffffffffffffffffff16815260200190815260200160002060006002815260200190815260200160002060009054906101000a900460ff16610a64576001600560003373ffffffffffffffffffffffffffffffffffffffff1673ffffffffffffffffffffffffffffffffffffffff16815260200190815260200160002060006002815260200190815260200160002060006101000a81548160ff0219169083151502179055506000809054906101000a900473ffffffffffffffffffffffffffffffffffffffff1673ffffffffffffffffffffffffffffffffffffffff1663158a49883360026040518363ffffffff1660e01b8152600401610a31929190612b9a565b600060405180830381600087803b158015610a4b57600080fd5b505af1158015610a5f573d6000803e3d6000fd5b505050505b565b600560003373ffffffffffffffffffffffffffffffffffffffff1673ffffffffffffffffffffffffffffffffffffffff16815260200190815260200160002060006002815260200190815260200160002060009054906101000a900460ff16610b04576040517f08c379a0000000000000000000000000000000000000000000000000000000008152600401610afb90612d14565b60405180910390fd5b6000600360009054906101000a900473ffffffffffffffffffffffffffffffffffffffff1673ffffffffffffffffffffffffffffffffffffffff166370a08231336040518263ffffffff1660e01b8152600401610b619190612b7f565b60206040518083038186803b158015610b7957600080fd5b505afa158015610b8d573d6000803e3d6000fd5b505050506040513d601f19601f82011682018060405250610bb19190810190612763565b14610bf1576040517f08c379a0000000000000000000000000000000000000000000000000000000008152600401610be890612cb4565b60405180910390fd5b600560003373ffffffffffffffffffffffffffffffffffffffff1673ffffffffffffffffffffffffffffffffffffffff16815260200190815260200160002060006003815260200190815260200160002060009054906101000a900460ff16610d4e576001600560003373ffffffffffffffffffffffffffffffffffffffff1673ffffffffffffffffffffffffffffffffffffffff16815260200190815260200160002060006003815260200190815260200160002060006101000a81548160ff0219169083151502179055506000809054906101000a900473ffffffffffffffffffffffffffffffffffffffff1673ffffffffffffffffffffffffffffffffffffffff1663158a49883360026040518363ffffffff1660e01b8152600401610d1b929190612b9a565b600060405180830381600087803b158015610d3557600080fd5b505af1158015610d49573d6000803e3d6000fd5b505050505b565b60056020528160005260406000206020528060005260406000206000915091509054906101000a900460ff1681565b6000600360009054906101000a900473ffffffffffffffffffffffffffffffffffffffff1673ffffffffffffffffffffffffffffffffffffffff166370a08231600660003373ffffffffffffffffffffffffffffffffffffffff1673ffffffffffffffffffffffffffffffffffffffff16815260200190815260200160002060009054906101000a900473ffffffffffffffffffffffffffffffffffffffff166040518263ffffffff1660e01b8152600401610e3b9190612b64565b60206040518083038186803b158015610e5357600080fd5b505afa158015610e67573d6000803e3d6000fd5b505050506040513d601f19601f82011682018060405250610e8b9190810190612763565b9050600660003373ffffffffffffffffffffffffffffffffffffffff1673ffffffffffffffffffffffffffffffffffffffff16815260200190815260200160002060009054906101000a900473ffffffffffffffffffffffffffffffffffffffff1673ffffffffffffffffffffffffffffffffffffffff16631a231a716040518163ffffffff1660e01b8152600401600060405180830381600087803b158015610f3457600080fd5b505af1158015610f48573d6000803e3d6000fd5b505050506000600360009054906101000a900473ffffffffffffffffffffffffffffffffffffffff1673ffffffffffffffffffffffffffffffffffffffff166370a08231600660003373ffffffffffffffffffffffffffffffffffffffff1673ffffffffffffffffffffffffffffffffffffffff16815260200190815260200160002060009054906101000a900473ffffffffffffffffffffffffffffffffffffffff166040518263ffffffff1660e01b81526004016110089190612b64565b60206040518083038186803b15801561102057600080fd5b505afa158015611034573d6000803e3d6000fd5b505050506040513d601f19601f820116820180604052506110589190810190612763565b905080821061109c576040517f08c379a000000000000000000000000000000000000000000000000000000000815260040161109390612cf4565b60405180910390fd5b600560003373ffffffffffffffffffffffffffffffffffffffff1673ffffffffffffffffffffffffffffffffffffffff16815260200190815260200160002060006006815260200190815260200160002060009054906101000a900460ff166111f9576001600560003373ffffffffffffffffffffffffffffffffffffffff1673ffffffffffffffffffffffffffffffffffffffff16815260200190815260200160002060006006815260200190815260200160002060006101000a81548160ff0219169083151502179055506000809054906101000a900473ffffffffffffffffffffffffffffffffffffffff1673ffffffffffffffffffffffffffffffffffffffff1663158a49883360026040518363ffffffff1660e01b81526004016111c6929190612b9a565b600060405180830381600087803b1580156111e057600080fd5b505af11580156111f4573d6000803e3d6000fd5b505050505b5050565b6000600160009054906101000a900473ffffffffffffffffffffffffffffffffffffffff1673ffffffffffffffffffffffffffffffffffffffff166370a08231336040518263ffffffff1660e01b815260040161125a9190612b7f565b60206040518083038186803b15801561127257600080fd5b505afa158015611286573d6000803e3d6000fd5b505050506040513d601f19601f820116820180604052506112aa9190810190612763565b116112ea576040517f08c379a00000000000000000000000000000000000000000000000000000000081526004016112e190612cb4565b60405180910390fd5b600560003373ffffffffffffffffffffffffffffffffffffffff1673ffffffffffffffffffffffffffffffffffffffff16815260200190815260200160002060006001815260200190815260200160002060009054906101000a900460ff16611447576001600560003373ffffffffffffffffffffffffffffffffffffffff1673ffffffffffffffffffffffffffffffffffffffff16815260200190815260200160002060006001815260200190815260200160002060006101000a81548160ff0219169083151502179055506000809054906101000a900473ffffffffffffffffffffffffffffffffffffffff1673ffffffffffffffffffffffffffffffffffffffff1663158a49883360026040518363ffffffff1660e01b8152600401611414929190612b9a565b600060405180830381600087803b15801561142e57600080fd5b505af1158015611442573d6000803e3d6000fd5b505050505b565b6000600360009054906101000a900473ffffffffffffffffffffffffffffffffffffffff1673ffffffffffffffffffffffffffffffffffffffff166370a08231600660003373ffffffffffffffffffffffffffffffffffffffff1673ffffffffffffffffffffffffffffffffffffffff16815260200190815260200160002060009054906101000a900473ffffffffffffffffffffffffffffffffffffffff166040518263ffffffff1660e01b81526004016115059190612b64565b60206040518083038186803b15801561151d57600080fd5b505afa158015611531573d6000803e3d6000fd5b505050506040513d601f19601f820116820180604052506115559190810190612763565b9050600660003373ffffffffffffffffffffffffffffffffffffffff1673ffffffffffffffffffffffffffffffffffffffff16815260200190815260200160002060009054906101000a900473ffffffffffffffffffffffffffffffffffffffff1673ffffffffffffffffffffffffffffffffffffffff16634b5bd34f6040518163ffffffff1660e01b8152600401600060405180830381600087803b1580156115fe57600080fd5b505af1158015611612573d6000803e3d6000fd5b505050506000600360009054906101000a900473ffffffffffffffffffffffffffffffffffffffff1673ffffffffffffffffffffffffffffffffffffffff166370a08231600660003373ffffffffffffffffffffffffffffffffffffffff1673ffffffffffffffffffffffffffffffffffffffff16815260200190815260200160002060009054906101000a900473ffffffffffffffffffffffffffffffffffffffff166040518263ffffffff1660e01b81526004016116d29190612b64565b60206040518083038186803b1580156116ea57600080fd5b505afa1580156116fe573d6000803e3d6000fd5b505050506040513d601f19601f820116820180604052506117229190810190612763565b9050808211611766576040517f08c379a000000000000000000000000000000000000000000000000000000000815260040161175d90612d74565b60405180910390fd5b600560003373ffffffffffffffffffffffffffffffffffffffff1673ffffffffffffffffffffffffffffffffffffffff16815260200190815260200160002060006007815260200190815260200160002060009054906101000a900460ff166118c3576001600560003373ffffffffffffffffffffffffffffffffffffffff1673ffffffffffffffffffffffffffffffffffffffff16815260200190815260200160002060006007815260200190815260200160002060006101000a81548160ff0219169083151502179055506000809054906101000a900473ffffffffffffffffffffffffffffffffffffffff1673ffffffffffffffffffffffffffffffffffffffff1663158a49883360026040518363ffffffff1660e01b8152600401611890929190612b9a565b600060405180830381600087803b1580156118aa57600080fd5b505af11580156118be573d6000803e3d6000fd5b505050505b5050565b600360009054906101000a900473ffffffffffffffffffffffffffffffffffffffff1681565b600460009054906101000a900473ffffffffffffffffffffffffffffffffffffffff1681565b600260009054906101000a900473ffffffffffffffffffffffffffffffffffffffff1681565b50565b600560003373ffffffffffffffffffffffffffffffffffffffff1673ffffffffffffffffffffffffffffffffffffffff16815260200190815260200160002060006001815260200190815260200160002060009054906101000a900460ff166119da576040517f08c379a00000000000000000000000000000000000000000000000000000000081526004016119d190612db4565b60405180910390fd5b6000600160009054906101000a900473ffffffffffffffffffffffffffffffffffffffff1673ffffffffffffffffffffffffffffffffffffffff166370a08231336040518263ffffffff1660e01b8152600401611a379190612b7f565b60206040518083038186803b158015611a4f57600080fd5b505afa158015611a63573d6000803e3d6000fd5b505050506040513d601f19601f82011682018060405250611a879190810190612763565b14611ac7576040517f08c379a0000000000000000000000000000000000000000000000000000000008152600401611abe90612cb4565b60405180910390fd5b600560003373ffffffffffffffffffffffffffffffffffffffff1673ffffffffffffffffffffffffffffffffffffffff16815260200190815260200160002060006004815260200190815260200160002060009054906101000a900460ff16611c24576001600560003373ffffffffffffffffffffffffffffffffffffffff1673ffffffffffffffffffffffffffffffffffffffff16815260200190815260200160002060006004815260200190815260200160002060006101000a81548160ff0219169083151502179055506000809054906101000a900473ffffffffffffffffffffffffffffffffffffffff1673ffffffffffffffffffffffffffffffffffffffff1663158a49883360026040518363ffffffff1660e01b8152600401611bf1929190612b9a565b600060405180830381600087803b158015611c0b57600080fd5b505af1158015611c1f573d6000803e3d6000fd5b505050505b565b6000600160009054906101000a900473ffffffffffffffffffffffffffffffffffffffff1673ffffffffffffffffffffffffffffffffffffffff166370a08231600660003373ffffffffffffffffffffffffffffffffffffffff1673ffffffffffffffffffffffffffffffffffffffff16815260200190815260200160002060009054906101000a900473ffffffffffffffffffffffffffffffffffffffff166040518263ffffffff1660e01b8152600401611ce29190612b64565b60206040518083038186803b158015611cfa57600080fd5b505afa158015611d0e573d6000803e3d6000fd5b505050506040513d601f19601f82011682018060405250611d329190810190612763565b9050600660003373ffffffffffffffffffffffffffffffffffffffff1673ffffffffffffffffffffffffffffffffffffffff16815260200190815260200160002060009054906101000a900473ffffffffffffffffffffffffffffffffffffffff1673ffffffffffffffffffffffffffffffffffffffff1663db50609f6040518163ffffffff1660e01b8152600401600060405180830381600087803b158015611ddb57600080fd5b505af1158015611def573d6000803e3d6000fd5b505050506000600160009054906101000a900473ffffffffffffffffffffffffffffffffffffffff1673ffffffffffffffffffffffffffffffffffffffff166370a08231600660003373ffffffffffffffffffffffffffffffffffffffff1673ffffffffffffffffffffffffffffffffffffffff16815260200190815260200160002060009054906101000a900473ffffffffffffffffffffffffffffffffffffffff166040518263ffffffff1660e01b8152600401611eaf9190612b64565b60206040518083038186803b158015611ec757600080fd5b505afa158015611edb573d6000803e3d6000fd5b505050506040513d601f19601f82011682018060405250611eff9190810190612763565b9050808211611f43576040517f08c379a0000000000000000000000000000000000000000000000000000000008152600401611f3a90612d54565b60405180910390fd5b600560003373ffffffffffffffffffffffffffffffffffffffff1673ffffffffffffffffffffffffffffffffffffffff16815260200190815260200160002060006008815260200190815260200160002060009054906101000a900460ff166120a0576001600560003373ffffffffffffffffffffffffffffffffffffffff1673ffffffffffffffffffffffffffffffffffffffff16815260200190815260200160002060006008815260200190815260200160002060006101000a81548160ff0219169083151502179055506000809054906101000a900473ffffffffffffffffffffffffffffffffffffffff1673ffffffffffffffffffffffffffffffffffffffff1663158a49883360026040518363ffffffff1660e01b815260040161206d929190612b9a565b600060405180830381600087803b15801561208757600080fd5b505af115801561209b573d6000803e3d6000fd5b505050505b5050565b6000809054906101000a900473ffffffffffffffffffffffffffffffffffffffff1681565b6000600160009054906101000a900473ffffffffffffffffffffffffffffffffffffffff1673ffffffffffffffffffffffffffffffffffffffff166370a08231600660003373ffffffffffffffffffffffffffffffffffffffff1673ffffffffffffffffffffffffffffffffffffffff16815260200190815260200160002060009054906101000a900473ffffffffffffffffffffffffffffffffffffffff166040518263ffffffff1660e01b81526004016121859190612b64565b60206040518083038186803b15801561219d57600080fd5b505afa1580156121b1573d6000803e3d6000fd5b505050506040513d601f19601f820116820180604052506121d59190810190612763565b9050600660003373ffffffffffffffffffffffffffffffffffffffff1673ffffffffffffffffffffffffffffffffffffffff16815260200190815260200160002060009054906101000a900473ffffffffffffffffffffffffffffffffffffffff1673ffffffffffffffffffffffffffffffffffffffff1663f6b96bae6040518163ffffffff1660e01b8152600401600060405180830381600087803b15801561227e57600080fd5b505af1158015612292573d6000803e3d6000fd5b505050506000600160009054906101000a900473ffffffffffffffffffffffffffffffffffffffff1673ffffffffffffffffffffffffffffffffffffffff166370a08231600660003373ffffffffffffffffffffffffffffffffffffffff1673ffffffffffffffffffffffffffffffffffffffff16815260200190815260200160002060009054906101000a900473ffffffffffffffffffffffffffffffffffffffff166040518263ffffffff1660e01b81526004016123529190612b64565b60206040518083038186803b15801561236a57600080fd5b505afa15801561237e573d6000803e3d6000fd5b505050506040513d601f19601f820116820180604052506123a29190810190612763565b90508082106123e6576040517f08c379a00000000000000000000000000000000000000000000000000000000081526004016123dd90612d34565b60405180910390fd5b600560003373ffffffffffffffffffffffffffffffffffffffff1673ffffffffffffffffffffffffffffffffffffffff16815260200190815260200160002060006005815260200190815260200160002060009054906101000a900460ff16612543576001600560003373ffffffffffffffffffffffffffffffffffffffff1673ffffffffffffffffffffffffffffffffffffffff16815260200190815260200160002060006005815260200190815260200160002060006101000a81548160ff0219169083151502179055506000809054906101000a900473ffffffffffffffffffffffffffffffffffffffff1673ffffffffffffffffffffffffffffffffffffffff1663158a49883360026040518363ffffffff1660e01b8152600401612510929190612b9a565b600060405180830381600087803b15801561252a57600080fd5b505af115801561253e573d6000803e3d6000fd5b505050505b5050565b60076020528060005260406000206000915054906101000a900460ff1681565b60008135905061257681612f36565b92915050565b60008151905061258b81612f4d565b92915050565b60008083601f8401126125a357600080fd5b8235905067ffffffffffffffff8111156125bc57600080fd5b6020830191508360018202830111156125d457600080fd5b9250929050565b6000813590506125ea81612f64565b92915050565b6000813590506125ff81612f7b565b92915050565b60008151905061261481612f7b565b92915050565b60006020828403121561262c57600080fd5b600061263a84828501612567565b91505092915050565b6000806040838503121561265657600080fd5b600061266485828601612567565b9250506020612675858286016125f0565b9150509250929050565b60008060008060008060a0878903121561269857600080fd5b60006126a689828a01612567565b96505060206126b789828a016125f0565b95505060406126c889828a016125f0565b94505060606126d989828a01612567565b935050608087013567ffffffffffffffff8111156126f657600080fd5b61270289828a01612591565b92509250509295509295509295565b60006020828403121561272357600080fd5b60006127318482850161257c565b91505092915050565b60006020828403121561274c57600080fd5b600061275a848285016125db565b91505092915050565b60006020828403121561277557600080fd5b600061278384828501612605565b91505092915050565b61279581612e50565b82525050565b6127a481612df6565b82525050565b6127b381612e08565b82525050565b60006127c58385612dd4565b93506127d2838584612f16565b6127db83612f25565b840190509392505050565b6127ef81612e62565b82525050565b6127fe81612e86565b82525050565b61280d81612eaa565b82525050565b61281c81612ece565b82525050565b61282b81612ee0565b82525050565b600061283e602483612de5565b91507f53656e64657220686173206e6f74206465706f73697465642044414920696e2060008301527f41415645000000000000000000000000000000000000000000000000000000006020830152604082019050919050565b60006128a4601983612de5565b91507f696e69746961746f72207265636569766572206661696c6564000000000000006000830152602082019050919050565b60006128e4602383612de5565b91507f596f757220636f6e747261637420646964206e6f7420626f72726f7720746f6b60008301527f656e7300000000000000000000000000000000000000000000000000000000006020830152604082019050919050565b600061294a601d83612de5565b91507f596f752073686f756c64206861766520636f6d706c65746564206578320000006000830152602082019050919050565b600061298a602483612de5565b91507f596f757220636f6e747261637420646964206e6f74206465706f73697420746f60008301527f6b656e73000000000000000000000000000000000000000000000000000000006020830152604082019050919050565b60006129f0602983612de5565b91507f596f757220636f6e747261637420646964206e6f74207769746864726177206960008301527f747320746f6b656e7300000000000000000000000000000000000000000000006020830152604082019050919050565b6000612a56602683612de5565b91507f596f757220636f6e747261637420646964206e6f74207265706179206974732060008301527f746f6b656e7300000000000000000000000000000000000000000000000000006020830152604082019050919050565b6000612abc602483612de5565b91507f53656e64657220686173206e6f7420626f72726f776564205553444320696e2060008301527f41415645000000000000000000000000000000000000000000000000000000006020830152604082019050919050565b6000612b22601d83612de5565b91507f596f752073686f756c64206861766520636f6d706c65746564206578310000006000830152602082019050919050565b612b5e81612e46565b82525050565b6000602082019050612b79600083018461279b565b92915050565b6000602082019050612b94600083018461278c565b92915050565b6000604082019050612baf600083018561278c565b612bbc6020830184612813565b9392505050565b6000604082019050612bd8600083018561279b565b612be56020830184612822565b9392505050565b600060a082019050612c01600083018961279b565b612c0e6020830188612b55565b612c1b6040830187612b55565b612c28606083018661279b565b8181036080830152612c3b8184866127b9565b9050979650505050505050565b6000602082019050612c5d60008301846127aa565b92915050565b6000602082019050612c7860008301846127e6565b92915050565b6000602082019050612c9360008301846127f5565b92915050565b6000602082019050612cae6000830184612804565b92915050565b60006020820190508181036000830152612ccd81612831565b9050919050565b60006020820190508181036000830152612ced81612897565b9050919050565b60006020820190508181036000830152612d0d816128d7565b9050919050565b60006020820190508181036000830152612d2d8161293d565b9050919050565b60006020820190508181036000830152612d4d8161297d565b9050919050565b60006020820190508181036000830152612d6d816129e3565b9050919050565b60006020820190508181036000830152612d8d81612a49565b9050919050565b60006020820190508181036000830152612dad81612aaf565b9050919050565b60006020820190508181036000830152612dcd81612b15565b9050919050565b600082825260208201905092915050565b600082825260208201905092915050565b6000612e0182612e26565b9050919050565b60008115159050919050565b6000612e1f82612df6565b9050919050565b600073ffffffffffffffffffffffffffffffffffffffff82169050919050565b6000819050919050565b6000612e5b82612ef2565b9050919050565b6000612e6d82612e74565b9050919050565b6000612e7f82612e26565b9050919050565b6000612e9182612e98565b9050919050565b6000612ea382612e26565b9050919050565b6000612eb582612ebc565b9050919050565b6000612ec782612e26565b9050919050565b6000612ed982612e46565b9050919050565b6000612eeb82612e46565b9050919050565b6000612efd82612f04565b9050919050565b6000612f0f82612e26565b9050919050565b82818337600083830152505050565b6000601f19601f8301169050919050565b612f3f81612df6565b8114612f4a57600080fd5b50565b612f5681612e08565b8114612f6157600080fd5b50565b612f6d81612e14565b8114612f7857600080fd5b50565b612f8481612e46565b8114612f8f57600080fd5b5056fea26469706673582212209c8fd155dd257e637c578e274847cf80a0de28ef871ac56ca796f6ab0cd6620664736f6c63430006020033",
  "source": "pragma solidity ^0.6.0;\npragma experimental ABIEncoderV2;\n\nimport \"./ERC20TD.sol\";\nimport \"./IExerciceSolution.sol\";\nimport \"./IFlashLoanSimpleReceiver.sol\";\nimport \"@openzeppelin/contracts/token/ERC20/IERC20.sol\";\n\n// import \"./utils/IUniswapV2Factory.sol\";\n// import \"./utils/IUniswapV2Pair.sol\";\n\ncontract Evaluator \n{\n\n\tERC20TD public TDAAVE;\n\tIERC20 public aDAI;\n\tIERC20 public USDC;\n\tIERC20 public variableDebtUSDC;\n\taddress public AAVEPool;\n\n \tmapping(address => mapping(uint256 => bool)) public exerciceProgression;\n \tmapping(address => IExerciceSolution) public studentExercice;\n \tmapping(address => bool) public hasBeenPaired;\n\n \tevent constructedCorrectly(address erc20Address, address adaiAddress, address UsdcAddress, address variableDebtUSDCAddress);\n\tconstructor(ERC20TD _TDAAVE, IERC20 _aDAI, IERC20 _USDC, IERC20 _variableDebtUSDC, address _AAVEPool) \n\tpublic \n\t{\n\t\tTDAAVE = _TDAAVE;\n\t\taDAI = _aDAI;\n\t\tUSDC = _USDC;\n\t\tvariableDebtUSDC = _variableDebtUSDC;\n\t\tAAVEPool = _AAVEPool;\n\t\temit constructedCorrectly(address(TDAAVE), address(aDAI), address(USDC), address(variableDebtUSDC));\n\n\t}\n\n\tfallback () external payable \n\t{}\n\n\treceive () external payable \n\t{}\n\n\tfunction ex1_showIDepositedTokens()\n\tpublic\n\t{\n\n\t\t// Sender should have deposited testnet aDAI\n\t\trequire(aDAI.balanceOf(msg.sender) > 0, \"Sender has not deposited DAI in AAVE\");\n\n\t\t// Distributing points\n\t\tif (!exerciceProgression[msg.sender][1])\n\t\t{\n\t\t\texerciceProgression[msg.sender][1] = true;\n\t\t\tTDAAVE.distributeTokens(msg.sender, 2);\n\t\t}\n\n\t}\n\n\tfunction ex2_showIBorrowedTokens()\n\tpublic\n\t{\n\n\t\t// Sender should have borrowed USDC on AAVE \n\t\trequire(variableDebtUSDC.balanceOf(msg.sender) > 0, \"Sender has not borrowed USDC in AAVE\");\n\n\t\t// Distributing points\n\t\tif (!exerciceProgression[msg.sender][2])\n\t\t{\n\t\t\texerciceProgression[msg.sender][2] = true;\n\t\t\tTDAAVE.distributeTokens(msg.sender, 2);\n\t\t}\n\n\t}\n\n\tfunction ex3_showIRepaidTokens()\n\tpublic\n\t{\n\n\t\trequire(exerciceProgression[msg.sender][2], \"You should have completed ex2\");\n\t\t// // Sender should repaid his testnet USDC\n\t\trequire(variableDebtUSDC.balanceOf(msg.sender) == 0, \"Sender has not deposited DAI in AAVE\");\n\n\t\t// Distributing points\n\t\tif (!exerciceProgression[msg.sender][3])\n\t\t{\n\t\t\texerciceProgression[msg.sender][3] = true;\n\t\t\tTDAAVE.distributeTokens(msg.sender, 2);\n\t\t}\n\n\t}\n\n\tfunction ex4_showIWithdrewTokens()\n\tpublic\n\t{\n\n\t\trequire(exerciceProgression[msg.sender][1], \"You should have completed ex1\");\n\n\t\t// // Sender should have no more testnet aDAI\n\t\trequire(aDAI.balanceOf(msg.sender) == 0, \"Sender has not deposited DAI in AAVE\");\n\n\t\t// Distributing points\n\t\tif (!exerciceProgression[msg.sender][4])\n\t\t{\n\t\t\texerciceProgression[msg.sender][4] = true;\n\t\t\tTDAAVE.distributeTokens(msg.sender, 2);\n\t\t}\n\n\t}\n\n\tfunction ex5_showContractCanDepositTokens()\n\tpublic\n\t{\n\t\t// Reading initial aDai balance\n\t\tuint256 initialBalance = aDAI.balanceOf(address(studentExercice[msg.sender]));\n\n\t\t// Trigger token deposit function\n\t\tstudentExercice[msg.sender].depositSomeTokens();\n\n\t\t// Read end balance\n\t\tuint256 endBalance = aDAI.balanceOf(address(studentExercice[msg.sender]));\n\n\t\t// Verify that contract did borrow\n\t\trequire(initialBalance < endBalance, \"Your contract did not deposit tokens\");\n\n\t\t// Distributing points\n\t\tif (!exerciceProgression[msg.sender][5])\n\t\t{\n\t\t\texerciceProgression[msg.sender][5] = true;\n\t\t\tTDAAVE.distributeTokens(msg.sender, 2);\n\t\t}\n\t}\n\n\tfunction ex6_showContractCanBorrowTokens()\n\tpublic\n\t{\n\t\t// Reading initial variableDebtUSDC balance\n\t\tuint256 initialBalance = variableDebtUSDC.balanceOf(address(studentExercice[msg.sender]));\n\n\t\t// Trigger token deposit function\n\t\tstudentExercice[msg.sender].borrowSomeTokens();\n\n\t\t// Read end balance\n\t\tuint256 endBalance = variableDebtUSDC.balanceOf(address(studentExercice[msg.sender]));\n\n\t\t// Verify that contract did borrow\n\t\trequire(initialBalance < endBalance, \"Your contract did not borrow tokens\");\n\n\t\t// Distributing points\n\t\tif (!exerciceProgression[msg.sender][6])\n\t\t{\n\t\t\texerciceProgression[msg.sender][6] = true;\n\t\t\tTDAAVE.distributeTokens(msg.sender, 2);\n\t\t}\n\t}\n\n\tfunction ex7_showContractCanRepayTokens()\n\tpublic\n\t{\n\t\t// Reading initial variableDebtUSDC balance\n\t\tuint256 initialBalance = variableDebtUSDC.balanceOf(address(studentExercice[msg.sender]));\n\n\t\t// Trigger token deposit function\n\t\tstudentExercice[msg.sender].repaySomeTokens();\n\n\t\t// Read end balance\n\t\tuint256 endBalance = variableDebtUSDC.balanceOf(address(studentExercice[msg.sender]));\n\n\t\t// Verify that contract did borrow\n\t\trequire(initialBalance > endBalance, \"Your contract did not repay its tokens\");\n\n\t\t// Distributing points\n\t\tif (!exerciceProgression[msg.sender][7])\n\t\t{\n\t\t\texerciceProgression[msg.sender][7] = true;\n\t\t\tTDAAVE.distributeTokens(msg.sender, 2);\n\t\t}\n\t}\n\n\tfunction ex8_showContractCanWithdrawTokens()\n\tpublic\n\t{\n\t\t// Reading initial aDai balance\n\t\tuint256 initialBalance = aDAI.balanceOf(address(studentExercice[msg.sender]));\n\n\t\t// Trigger token deposit function\n\t\tstudentExercice[msg.sender].withdrawSomeTokens();\n\n\t\t// Read end balance\n\t\tuint256 endBalance = aDAI.balanceOf(address(studentExercice[msg.sender]));\n\n\t\t// Verify that contract did borrow\n\t\trequire(initialBalance > endBalance, \"Your contract did not withdraw its tokens\");\n\n\t\t// Distributing points\n\t\tif (!exerciceProgression[msg.sender][8])\n\t\t{\n\t\t\texerciceProgression[msg.sender][8] = true;\n\t\t\tTDAAVE.distributeTokens(msg.sender, 2);\n\t\t}\n\t}\n\n\t// Exercice 9 - Verify that you are able to execute a flash loan\n\t// To validate this exercice, your solution needs to:\n\t// - Get a flashloan with Aave, for 1M USDC\n\t// - Set the flashloan call so that it calls back this contract \n\t// - Implement a executeOperation() function that handles loan repayment, including the fees\n\t// The flow is: \n\t// - Your contract calls AAVE's Pool on flashLoanSimple()\n\t// - The pool calls the evaluator on executeOperation()\n\t// - The evaluator calls your contract on executeOperation()\n\t// - The call returns to the evaluator\n\t// - The call returns to the pool\n\t// - The call returns to your contract\n\n\tfunction executeOperation(\n\t\taddress asset,\n\t\tuint256 amount,\n\t\tuint256 premium,\n\t\taddress initiator,\n\t\tbytes calldata params\n\t\t) \n\texternal \n\treturns (bool)\n\t{\n\t\t// Check https://docs.aave.com/developers/guides/flash-loans\n\n\t\t// Verify that caller is AAVE\n\t\trequire(msg.sender == AAVEPool);\n\n\t\t// Distributing points\n\t\tif (!exerciceProgression[initiator][9])\n\t\t{\n\t\t\texerciceProgression[initiator][9] = true;\n\t\t\tTDAAVE.distributeTokens(initiator, 4);\n\t\t}\n\n\t\t// Transmit call to initiator\n\t\trequire(IFlashLoanSimpleReceiver(initiator).executeOperation(\n        asset,\n        amount,\n        premium,\n        initiator,\n        params\n      ),\n\t\t\"initiator receiver failed\");\n\n\t\treturn(true);\n\n\t}\n\n\tfunction ex9_performFlashLoan(address studentAddress)\n\tpublic\n\t{\t\n\n\n\t}\n\n\tmodifier onlyTeachers() \n\t{\n\n\t    require(TDAAVE.teachers(msg.sender));\n\t    _;\n\t}\n\n\tfunction submitExercice(IExerciceSolution studentExercice_)\n\tpublic\n\t{\n\t\t// Checking this contract was not used by another group before\n\t\trequire(!hasBeenPaired[address(studentExercice_)]);\n\n\t\t// Assigning passed ERC20 as student ERC20\n\t\tstudentExercice[msg.sender] = studentExercice_;\n\t\thasBeenPaired[address(studentExercice_)] = true;\n\t\t\t\n\t}\n\n}\n",
  "sourcePath": "/Users/henrilieutaud/Documents/Workshop/Solidity/lending-101/contracts/Evaluator.sol",
  "compiler": {
    "name": "solc",
    "version": "0.6.2+commit.bacdbe57.Emscripten.clang"
  },
  "schemaVersion": "3.4.7",
  "updatedAt": "2023-02-17T15:21:27.282Z",
  "networkType": "ethereum",
  "devdoc": {
    "methods": {}
  },
  "userdoc": {
    "methods": {}
  }
}