{
  "contractName": "Evaluator",
  "abi": [
    {
      "inputs": [
        {
          "internalType": "contract ERC20TD",
          "name": "_TDAAVE",
          "type": "address"
        },
        {
          "internalType": "contract IERC20",
          "name": "_aDAI",
          "type": "address"
        },
        {
          "internalType": "contract IERC20",
          "name": "_USDC",
          "type": "address"
        },
        {
          "internalType": "contract IERC20",
          "name": "_variableDebtUSDC",
          "type": "address"
        }
      ],
      "stateMutability": "nonpayable",
      "type": "constructor"
    },
    {
      "anonymous": false,
      "inputs": [
        {
          "indexed": false,
          "internalType": "address",
          "name": "erc20Address",
          "type": "address"
        },
        {
          "indexed": false,
          "internalType": "address",
          "name": "adaiAddress",
          "type": "address"
        },
        {
          "indexed": false,
          "internalType": "address",
          "name": "aUsdcAddress",
          "type": "address"
        },
        {
          "indexed": false,
          "internalType": "address",
          "name": "variableDebtUSDCAddress",
          "type": "address"
        }
      ],
      "name": "constructedCorrectly",
      "type": "event"
    },
    {
      "stateMutability": "payable",
      "type": "fallback"
    },
    {
      "inputs": [],
      "name": "TDAAVE",
      "outputs": [
        {
          "internalType": "contract ERC20TD",
          "name": "",
          "type": "address"
        }
      ],
      "stateMutability": "view",
      "type": "function"
    },
    {
      "inputs": [],
      "name": "USDC",
      "outputs": [
        {
          "internalType": "contract IERC20",
          "name": "",
          "type": "address"
        }
      ],
      "stateMutability": "view",
      "type": "function"
    },
    {
      "inputs": [],
      "name": "aDAI",
      "outputs": [
        {
          "internalType": "contract IERC20",
          "name": "",
          "type": "address"
        }
      ],
      "stateMutability": "view",
      "type": "function"
    },
    {
      "inputs": [
        {
          "internalType": "address",
          "name": "",
          "type": "address"
        },
        {
          "internalType": "uint256",
          "name": "",
          "type": "uint256"
        }
      ],
      "name": "exerciceProgression",
      "outputs": [
        {
          "internalType": "bool",
          "name": "",
          "type": "bool"
        }
      ],
      "stateMutability": "view",
      "type": "function"
    },
    {
      "inputs": [
        {
          "internalType": "address",
          "name": "",
          "type": "address"
        }
      ],
      "name": "hasBeenPaired",
      "outputs": [
        {
          "internalType": "bool",
          "name": "",
          "type": "bool"
        }
      ],
      "stateMutability": "view",
      "type": "function"
    },
    {
      "inputs": [
        {
          "internalType": "address",
          "name": "",
          "type": "address"
        }
      ],
      "name": "studentExercice",
      "outputs": [
        {
          "internalType": "contract IExerciceSolution",
          "name": "",
          "type": "address"
        }
      ],
      "stateMutability": "view",
      "type": "function"
    },
    {
      "inputs": [],
      "name": "variableDebtUSDC",
      "outputs": [
        {
          "internalType": "contract IERC20",
          "name": "",
          "type": "address"
        }
      ],
      "stateMutability": "view",
      "type": "function"
    },
    {
      "stateMutability": "payable",
      "type": "receive"
    },
    {
      "inputs": [],
      "name": "ex1_showIDepositedTokens",
      "outputs": [],
      "stateMutability": "nonpayable",
      "type": "function"
    },
    {
      "inputs": [],
      "name": "ex2_showIBorrowedTokens",
      "outputs": [],
      "stateMutability": "nonpayable",
      "type": "function"
    },
    {
      "inputs": [],
      "name": "ex3_showIRepaidTokens",
      "outputs": [],
      "stateMutability": "nonpayable",
      "type": "function"
    },
    {
      "inputs": [],
      "name": "ex4_showIWithdrewTokens",
      "outputs": [],
      "stateMutability": "nonpayable",
      "type": "function"
    },
    {
      "inputs": [],
      "name": "ex5_showContractCanDepositTokens",
      "outputs": [],
      "stateMutability": "nonpayable",
      "type": "function"
    },
    {
      "inputs": [],
      "name": "ex6_showContractCanBorrowTokens",
      "outputs": [],
      "stateMutability": "nonpayable",
      "type": "function"
    },
    {
      "inputs": [],
      "name": "ex7_showContractCanRepayTokens",
      "outputs": [],
      "stateMutability": "nonpayable",
      "type": "function"
    },
    {
      "inputs": [],
      "name": "ex8_showContractCanWithdrawTokens",
      "outputs": [],
      "stateMutability": "nonpayable",
      "type": "function"
    },
    {
      "inputs": [],
      "name": "ex9_performFlashLoan",
      "outputs": [],
      "stateMutability": "nonpayable",
      "type": "function"
    },
    {
      "inputs": [
        {
          "internalType": "contract IExerciceSolution",
          "name": "studentExercice_",
          "type": "address"
        }
      ],
      "name": "submitExercice",
      "outputs": [],
      "stateMutability": "nonpayable",
      "type": "function"
    }
  ],
  "bytecode": "0x60806040523480156200001157600080fd5b506040516200338a3803806200338a833981810160405262000037919081019062000238565b836000806101000a81548173ffffffffffffffffffffffffffffffffffffffff021916908373ffffffffffffffffffffffffffffffffffffffff16021790555082600160006101000a81548173ffffffffffffffffffffffffffffffffffffffff021916908373ffffffffffffffffffffffffffffffffffffffff16021790555081600260006101000a81548173ffffffffffffffffffffffffffffffffffffffff021916908373ffffffffffffffffffffffffffffffffffffffff16021790555080600360006101000a81548173ffffffffffffffffffffffffffffffffffffffff021916908373ffffffffffffffffffffffffffffffffffffffff1602179055507f82169bf8e2a940653a3005b8fbe3a01d8ab56fd5bbbcd0bf31ac67b29cee1f976000809054906101000a900473ffffffffffffffffffffffffffffffffffffffff16600160009054906101000a900473ffffffffffffffffffffffffffffffffffffffff16600260009054906101000a900473ffffffffffffffffffffffffffffffffffffffff16600360009054906101000a900473ffffffffffffffffffffffffffffffffffffffff16604051620001f89493929190620002b5565b60405180910390a15050505062000392565b6000815190506200021b816200035e565b92915050565b600081519050620002328162000378565b92915050565b600080600080608085870312156200024f57600080fd5b60006200025f878288016200020a565b9450506020620002728782880162000221565b9350506040620002858782880162000221565b9250506060620002988782880162000221565b91505092959194509250565b620002af8162000302565b82525050565b6000608082019050620002cc6000830187620002a4565b620002db6020830186620002a4565b620002ea6040830185620002a4565b620002f96060830184620002a4565b95945050505050565b60006200030f826200033e565b9050919050565b6000620003238262000302565b9050919050565b6000620003378262000302565b9050919050565b600073ffffffffffffffffffffffffffffffffffffffff82169050919050565b620003698162000316565b81146200037557600080fd5b50565b62000383816200032a565b81146200038f57600080fd5b50565b612fe880620003a26000396000f3fe6080604052600436106101025760003560e01c80635d5fff3111610095578063a3f6214211610064578063a3f62142146102b9578063bae3872e146102d0578063dc87d1e7146102e7578063e604cbc414610312578063f4fdbb881461032957610109565b80635d5fff31146102355780635f00f3221461024c578063689d82c01461026357806389a302711461028e57610109565b80632e45a7b1116100d15780632e45a7b1146101b35780632e64c500146101ca57806330af745f146102075780633abe5e1f1461021e57610109565b80630c58c95c1461010b5780631a38a4fb146101485780632236d35314610173578063289cf40c1461019c57610109565b3661010957005b005b34801561011757600080fd5b50610132600480360361012d91908101906127af565b610366565b60405161013f9190612d01565b60405180910390f35b34801561015457600080fd5b5061015d610399565b60405161016a9190612ce6565b60405180910390f35b34801561017f57600080fd5b5061019a60048036036101959190810190612814565b6103bf565b005b3480156101a857600080fd5b506101b16104ef565b005b3480156101bf57600080fd5b506101c861073b565b005b3480156101d657600080fd5b506101f160048036036101ec91908101906127d8565b610a25565b6040516101fe9190612cb0565b60405180910390f35b34801561021357600080fd5b5061021c610a54565b005b34801561022a57600080fd5b50610233610ed2565b005b34801561024157600080fd5b5061024a61111e565b005b34801561025857600080fd5b50610261611666565b005b34801561026f57600080fd5b50610278611ae4565b6040516102859190612ce6565b60405180910390f35b34801561029a57600080fd5b506102a3611b0a565b6040516102b09190612ce6565b60405180910390f35b3480156102c557600080fd5b506102ce611b30565b005b3480156102dc57600080fd5b506102e5611e1a565b005b3480156102f357600080fd5b506102fc612298565b6040516103099190612ccb565b60405180910390f35b34801561031e57600080fd5b506103276122bd565b005b34801561033557600080fd5b50610350600480360361034b91908101906127af565b61273b565b60405161035d9190612cb0565b60405180910390f35b60056020528060005260406000206000915054906101000a900473ffffffffffffffffffffffffffffffffffffffff1681565b600160009054906101000a900473ffffffffffffffffffffffffffffffffffffffff1681565b600660008273ffffffffffffffffffffffffffffffffffffffff1673ffffffffffffffffffffffffffffffffffffffff16815260200190815260200160002060009054906101000a900460ff161561041657600080fd5b80600560003373ffffffffffffffffffffffffffffffffffffffff1673ffffffffffffffffffffffffffffffffffffffff16815260200190815260200160002060006101000a81548173ffffffffffffffffffffffffffffffffffffffff021916908373ffffffffffffffffffffffffffffffffffffffff1602179055506001600660008373ffffffffffffffffffffffffffffffffffffffff1673ffffffffffffffffffffffffffffffffffffffff16815260200190815260200160002060006101000a81548160ff02191690831515021790555050565b6000600360009054906101000a900473ffffffffffffffffffffffffffffffffffffffff1673ffffffffffffffffffffffffffffffffffffffff166370a08231336040518263ffffffff1660e01b815260040161054c9190612c43565b60206040518083038186803b15801561056457600080fd5b505afa158015610578573d6000803e3d6000fd5b505050506040513d601f19601f8201168201806040525061059c919081019061283d565b116105dc576040517f08c379a00000000000000000000000000000000000000000000000000000000081526004016105d390612dfc565b60405180910390fd5b600460003373ffffffffffffffffffffffffffffffffffffffff1673ffffffffffffffffffffffffffffffffffffffff16815260200190815260200160002060006002815260200190815260200160002060009054906101000a900460ff16610739576001600460003373ffffffffffffffffffffffffffffffffffffffff1673ffffffffffffffffffffffffffffffffffffffff16815260200190815260200160002060006002815260200190815260200160002060006101000a81548160ff0219169083151502179055506000809054906101000a900473ffffffffffffffffffffffffffffffffffffffff1673ffffffffffffffffffffffffffffffffffffffff1663158a49883360026040518363ffffffff1660e01b8152600401610706929190612c5e565b600060405180830381600087803b15801561072057600080fd5b505af1158015610734573d6000803e3d6000fd5b505050505b565b600460003373ffffffffffffffffffffffffffffffffffffffff1673ffffffffffffffffffffffffffffffffffffffff16815260200190815260200160002060006002815260200190815260200160002060009054906101000a900460ff166107d9576040517f08c379a00000000000000000000000000000000000000000000000000000000081526004016107d090612d7c565b60405180910390fd5b6000600360009054906101000a900473ffffffffffffffffffffffffffffffffffffffff1673ffffffffffffffffffffffffffffffffffffffff166370a08231336040518263ffffffff1660e01b81526004016108369190612c43565b60206040518083038186803b15801561084e57600080fd5b505afa158015610862573d6000803e3d6000fd5b505050506040513d601f19601f82011682018060405250610886919081019061283d565b146108c6576040517f08c379a00000000000000000000000000000000000000000000000000000000081526004016108bd90612d3c565b60405180910390fd5b600460003373ffffffffffffffffffffffffffffffffffffffff1673ffffffffffffffffffffffffffffffffffffffff16815260200190815260200160002060006003815260200190815260200160002060009054906101000a900460ff16610a23576001600460003373ffffffffffffffffffffffffffffffffffffffff1673ffffffffffffffffffffffffffffffffffffffff16815260200190815260200160002060006003815260200190815260200160002060006101000a81548160ff0219169083151502179055506000809054906101000a900473ffffffffffffffffffffffffffffffffffffffff1673ffffffffffffffffffffffffffffffffffffffff1663158a49883360026040518363ffffffff1660e01b81526004016109f0929190612c5e565b600060405180830381600087803b158015610a0a57600080fd5b505af1158015610a1e573d6000803e3d6000fd5b505050505b565b60046020528160005260406000206020528060005260406000206000915091509054906101000a900460ff1681565b6000600360009054906101000a900473ffffffffffffffffffffffffffffffffffffffff1673ffffffffffffffffffffffffffffffffffffffff166370a08231600560003373ffffffffffffffffffffffffffffffffffffffff1673ffffffffffffffffffffffffffffffffffffffff16815260200190815260200160002060009054906101000a900473ffffffffffffffffffffffffffffffffffffffff166040518263ffffffff1660e01b8152600401610b109190612c28565b60206040518083038186803b158015610b2857600080fd5b505afa158015610b3c573d6000803e3d6000fd5b505050506040513d601f19601f82011682018060405250610b60919081019061283d565b9050600560003373ffffffffffffffffffffffffffffffffffffffff1673ffffffffffffffffffffffffffffffffffffffff16815260200190815260200160002060009054906101000a900473ffffffffffffffffffffffffffffffffffffffff1673ffffffffffffffffffffffffffffffffffffffff16631a231a716040518163ffffffff1660e01b8152600401600060405180830381600087803b158015610c0957600080fd5b505af1158015610c1d573d6000803e3d6000fd5b505050506000600360009054906101000a900473ffffffffffffffffffffffffffffffffffffffff1673ffffffffffffffffffffffffffffffffffffffff166370a08231600560003373ffffffffffffffffffffffffffffffffffffffff1673ffffffffffffffffffffffffffffffffffffffff16815260200190815260200160002060009054906101000a900473ffffffffffffffffffffffffffffffffffffffff166040518263ffffffff1660e01b8152600401610cdd9190612c28565b60206040518083038186803b158015610cf557600080fd5b505afa158015610d09573d6000803e3d6000fd5b505050506040513d601f19601f82011682018060405250610d2d919081019061283d565b9050808210610d71576040517f08c379a0000000000000000000000000000000000000000000000000000000008152600401610d6890612d5c565b60405180910390fd5b600460003373ffffffffffffffffffffffffffffffffffffffff1673ffffffffffffffffffffffffffffffffffffffff16815260200190815260200160002060006006815260200190815260200160002060009054906101000a900460ff16610ece576001600460003373ffffffffffffffffffffffffffffffffffffffff1673ffffffffffffffffffffffffffffffffffffffff16815260200190815260200160002060006006815260200190815260200160002060006101000a81548160ff0219169083151502179055506000809054906101000a900473ffffffffffffffffffffffffffffffffffffffff1673ffffffffffffffffffffffffffffffffffffffff1663158a49883360026040518363ffffffff1660e01b8152600401610e9b929190612c5e565b600060405180830381600087803b158015610eb557600080fd5b505af1158015610ec9573d6000803e3d6000fd5b505050505b5050565b6000600160009054906101000a900473ffffffffffffffffffffffffffffffffffffffff1673ffffffffffffffffffffffffffffffffffffffff166370a08231336040518263ffffffff1660e01b8152600401610f2f9190612c43565b60206040518083038186803b158015610f4757600080fd5b505afa158015610f5b573d6000803e3d6000fd5b505050506040513d601f19601f82011682018060405250610f7f919081019061283d565b11610fbf576040517f08c379a0000000000000000000000000000000000000000000000000000000008152600401610fb690612d3c565b60405180910390fd5b600460003373ffffffffffffffffffffffffffffffffffffffff1673ffffffffffffffffffffffffffffffffffffffff16815260200190815260200160002060006001815260200190815260200160002060009054906101000a900460ff1661111c576001600460003373ffffffffffffffffffffffffffffffffffffffff1673ffffffffffffffffffffffffffffffffffffffff16815260200190815260200160002060006001815260200190815260200160002060006101000a81548160ff0219169083151502179055506000809054906101000a900473ffffffffffffffffffffffffffffffffffffffff1673ffffffffffffffffffffffffffffffffffffffff1663158a49883360026040518363ffffffff1660e01b81526004016110e9929190612c5e565b600060405180830381600087803b15801561110357600080fd5b505af1158015611117573d6000803e3d6000fd5b505050505b565b6000600260009054906101000a900473ffffffffffffffffffffffffffffffffffffffff1673ffffffffffffffffffffffffffffffffffffffff166370a08231600560003373ffffffffffffffffffffffffffffffffffffffff1673ffffffffffffffffffffffffffffffffffffffff16815260200190815260200160002060009054906101000a900473ffffffffffffffffffffffffffffffffffffffff166040518263ffffffff1660e01b81526004016111da9190612c28565b60206040518083038186803b1580156111f257600080fd5b505afa158015611206573d6000803e3d6000fd5b505050506040513d601f19601f8201168201806040525061122a919081019061283d565b9050600560003373ffffffffffffffffffffffffffffffffffffffff1673ffffffffffffffffffffffffffffffffffffffff16815260200190815260200160002060009054906101000a900473ffffffffffffffffffffffffffffffffffffffff1673ffffffffffffffffffffffffffffffffffffffff1663d871f5946040518163ffffffff1660e01b8152600401600060405180830381600087803b1580156112d357600080fd5b505af11580156112e7573d6000803e3d6000fd5b505050506000600260009054906101000a900473ffffffffffffffffffffffffffffffffffffffff1673ffffffffffffffffffffffffffffffffffffffff166370a08231600560003373ffffffffffffffffffffffffffffffffffffffff1673ffffffffffffffffffffffffffffffffffffffff16815260200190815260200160002060009054906101000a900473ffffffffffffffffffffffffffffffffffffffff166040518263ffffffff1660e01b81526004016113a79190612c28565b60206040518083038186803b1580156113bf57600080fd5b505afa1580156113d3573d6000803e3d6000fd5b505050506040513d601f19601f820116820180604052506113f7919081019061283d565b9050600064e8d4a510009050808211611445576040517f08c379a000000000000000000000000000000000000000000000000000000000815260040161143c90612d1c565b60405180910390fd5b600560003373ffffffffffffffffffffffffffffffffffffffff1673ffffffffffffffffffffffffffffffffffffffff16815260200190815260200160002060009054906101000a900473ffffffffffffffffffffffffffffffffffffffff1673ffffffffffffffffffffffffffffffffffffffff1663fc6669b66040518163ffffffff1660e01b8152600401600060405180830381600087803b1580156114ec57600080fd5b505af1158015611500573d6000803e3d6000fd5b50505050600460003373ffffffffffffffffffffffffffffffffffffffff1673ffffffffffffffffffffffffffffffffffffffff16815260200190815260200160002060006009815260200190815260200160002060009054906101000a900460ff16611661576001600460003373ffffffffffffffffffffffffffffffffffffffff1673ffffffffffffffffffffffffffffffffffffffff16815260200190815260200160002060006009815260200190815260200160002060006101000a81548160ff0219169083151502179055506000809054906101000a900473ffffffffffffffffffffffffffffffffffffffff1673ffffffffffffffffffffffffffffffffffffffff1663158a49883360046040518363ffffffff1660e01b815260040161162e929190612c87565b600060405180830381600087803b15801561164857600080fd5b505af115801561165c573d6000803e3d6000fd5b505050505b505050565b6000600360009054906101000a900473ffffffffffffffffffffffffffffffffffffffff1673ffffffffffffffffffffffffffffffffffffffff166370a08231600560003373ffffffffffffffffffffffffffffffffffffffff1673ffffffffffffffffffffffffffffffffffffffff16815260200190815260200160002060009054906101000a900473ffffffffffffffffffffffffffffffffffffffff166040518263ffffffff1660e01b81526004016117229190612c28565b60206040518083038186803b15801561173a57600080fd5b505afa15801561174e573d6000803e3d6000fd5b505050506040513d601f19601f82011682018060405250611772919081019061283d565b9050600560003373ffffffffffffffffffffffffffffffffffffffff1673ffffffffffffffffffffffffffffffffffffffff16815260200190815260200160002060009054906101000a900473ffffffffffffffffffffffffffffffffffffffff1673ffffffffffffffffffffffffffffffffffffffff16634b5bd34f6040518163ffffffff1660e01b8152600401600060405180830381600087803b15801561181b57600080fd5b505af115801561182f573d6000803e3d6000fd5b505050506000600360009054906101000a900473ffffffffffffffffffffffffffffffffffffffff1673ffffffffffffffffffffffffffffffffffffffff166370a08231600560003373ffffffffffffffffffffffffffffffffffffffff1673ffffffffffffffffffffffffffffffffffffffff16815260200190815260200160002060009054906101000a900473ffffffffffffffffffffffffffffffffffffffff166040518263ffffffff1660e01b81526004016118ef9190612c28565b60206040518083038186803b15801561190757600080fd5b505afa15801561191b573d6000803e3d6000fd5b505050506040513d601f19601f8201168201806040525061193f919081019061283d565b9050808211611983576040517f08c379a000000000000000000000000000000000000000000000000000000000815260040161197a90612ddc565b60405180910390fd5b600460003373ffffffffffffffffffffffffffffffffffffffff1673ffffffffffffffffffffffffffffffffffffffff16815260200190815260200160002060006007815260200190815260200160002060009054906101000a900460ff16611ae0576001600460003373ffffffffffffffffffffffffffffffffffffffff1673ffffffffffffffffffffffffffffffffffffffff16815260200190815260200160002060006007815260200190815260200160002060006101000a81548160ff0219169083151502179055506000809054906101000a900473ffffffffffffffffffffffffffffffffffffffff1673ffffffffffffffffffffffffffffffffffffffff1663158a49883360026040518363ffffffff1660e01b8152600401611aad929190612c5e565b600060405180830381600087803b158015611ac757600080fd5b505af1158015611adb573d6000803e3d6000fd5b505050505b5050565b600360009054906101000a900473ffffffffffffffffffffffffffffffffffffffff1681565b600260009054906101000a900473ffffffffffffffffffffffffffffffffffffffff1681565b600460003373ffffffffffffffffffffffffffffffffffffffff1673ffffffffffffffffffffffffffffffffffffffff16815260200190815260200160002060006001815260200190815260200160002060009054906101000a900460ff16611bce576040517f08c379a0000000000000000000000000000000000000000000000000000000008152600401611bc590612e1c565b60405180910390fd5b6000600160009054906101000a900473ffffffffffffffffffffffffffffffffffffffff1673ffffffffffffffffffffffffffffffffffffffff166370a08231336040518263ffffffff1660e01b8152600401611c2b9190612c43565b60206040518083038186803b158015611c4357600080fd5b505afa158015611c57573d6000803e3d6000fd5b505050506040513d601f19601f82011682018060405250611c7b919081019061283d565b14611cbb576040517f08c379a0000000000000000000000000000000000000000000000000000000008152600401611cb290612d3c565b60405180910390fd5b600460003373ffffffffffffffffffffffffffffffffffffffff1673ffffffffffffffffffffffffffffffffffffffff16815260200190815260200160002060006004815260200190815260200160002060009054906101000a900460ff16611e18576001600460003373ffffffffffffffffffffffffffffffffffffffff1673ffffffffffffffffffffffffffffffffffffffff16815260200190815260200160002060006004815260200190815260200160002060006101000a81548160ff0219169083151502179055506000809054906101000a900473ffffffffffffffffffffffffffffffffffffffff1673ffffffffffffffffffffffffffffffffffffffff1663158a49883360026040518363ffffffff1660e01b8152600401611de5929190612c5e565b600060405180830381600087803b158015611dff57600080fd5b505af1158015611e13573d6000803e3d6000fd5b505050505b565b6000600160009054906101000a900473ffffffffffffffffffffffffffffffffffffffff1673ffffffffffffffffffffffffffffffffffffffff166370a08231600560003373ffffffffffffffffffffffffffffffffffffffff1673ffffffffffffffffffffffffffffffffffffffff16815260200190815260200160002060009054906101000a900473ffffffffffffffffffffffffffffffffffffffff166040518263ffffffff1660e01b8152600401611ed69190612c28565b60206040518083038186803b158015611eee57600080fd5b505afa158015611f02573d6000803e3d6000fd5b505050506040513d601f19601f82011682018060405250611f26919081019061283d565b9050600560003373ffffffffffffffffffffffffffffffffffffffff1673ffffffffffffffffffffffffffffffffffffffff16815260200190815260200160002060009054906101000a900473ffffffffffffffffffffffffffffffffffffffff1673ffffffffffffffffffffffffffffffffffffffff1663db50609f6040518163ffffffff1660e01b8152600401600060405180830381600087803b158015611fcf57600080fd5b505af1158015611fe3573d6000803e3d6000fd5b505050506000600160009054906101000a900473ffffffffffffffffffffffffffffffffffffffff1673ffffffffffffffffffffffffffffffffffffffff166370a08231600560003373ffffffffffffffffffffffffffffffffffffffff1673ffffffffffffffffffffffffffffffffffffffff16815260200190815260200160002060009054906101000a900473ffffffffffffffffffffffffffffffffffffffff166040518263ffffffff1660e01b81526004016120a39190612c28565b60206040518083038186803b1580156120bb57600080fd5b505afa1580156120cf573d6000803e3d6000fd5b505050506040513d601f19601f820116820180604052506120f3919081019061283d565b9050808211612137576040517f08c379a000000000000000000000000000000000000000000000000000000000815260040161212e90612dbc565b60405180910390fd5b600460003373ffffffffffffffffffffffffffffffffffffffff1673ffffffffffffffffffffffffffffffffffffffff16815260200190815260200160002060006008815260200190815260200160002060009054906101000a900460ff16612294576001600460003373ffffffffffffffffffffffffffffffffffffffff1673ffffffffffffffffffffffffffffffffffffffff16815260200190815260200160002060006008815260200190815260200160002060006101000a81548160ff0219169083151502179055506000809054906101000a900473ffffffffffffffffffffffffffffffffffffffff1673ffffffffffffffffffffffffffffffffffffffff1663158a49883360026040518363ffffffff1660e01b8152600401612261929190612c5e565b600060405180830381600087803b15801561227b57600080fd5b505af115801561228f573d6000803e3d6000fd5b505050505b5050565b6000809054906101000a900473ffffffffffffffffffffffffffffffffffffffff1681565b6000600160009054906101000a900473ffffffffffffffffffffffffffffffffffffffff1673ffffffffffffffffffffffffffffffffffffffff166370a08231600560003373ffffffffffffffffffffffffffffffffffffffff1673ffffffffffffffffffffffffffffffffffffffff16815260200190815260200160002060009054906101000a900473ffffffffffffffffffffffffffffffffffffffff166040518263ffffffff1660e01b81526004016123799190612c28565b60206040518083038186803b15801561239157600080fd5b505afa1580156123a5573d6000803e3d6000fd5b505050506040513d601f19601f820116820180604052506123c9919081019061283d565b9050600560003373ffffffffffffffffffffffffffffffffffffffff1673ffffffffffffffffffffffffffffffffffffffff16815260200190815260200160002060009054906101000a900473ffffffffffffffffffffffffffffffffffffffff1673ffffffffffffffffffffffffffffffffffffffff1663f6b96bae6040518163ffffffff1660e01b8152600401600060405180830381600087803b15801561247257600080fd5b505af1158015612486573d6000803e3d6000fd5b505050506000600160009054906101000a900473ffffffffffffffffffffffffffffffffffffffff1673ffffffffffffffffffffffffffffffffffffffff166370a08231600560003373ffffffffffffffffffffffffffffffffffffffff1673ffffffffffffffffffffffffffffffffffffffff16815260200190815260200160002060009054906101000a900473ffffffffffffffffffffffffffffffffffffffff166040518263ffffffff1660e01b81526004016125469190612c28565b60206040518083038186803b15801561255e57600080fd5b505afa158015612572573d6000803e3d6000fd5b505050506040513d601f19601f82011682018060405250612596919081019061283d565b90508082106125da576040517f08c379a00000000000000000000000000000000000000000000000000000000081526004016125d190612d9c565b60405180910390fd5b600460003373ffffffffffffffffffffffffffffffffffffffff1673ffffffffffffffffffffffffffffffffffffffff16815260200190815260200160002060006005815260200190815260200160002060009054906101000a900460ff16612737576001600460003373ffffffffffffffffffffffffffffffffffffffff1673ffffffffffffffffffffffffffffffffffffffff16815260200190815260200160002060006005815260200190815260200160002060006101000a81548160ff0219169083151502179055506000809054906101000a900473ffffffffffffffffffffffffffffffffffffffff1673ffffffffffffffffffffffffffffffffffffffff1663158a49883360026040518363ffffffff1660e01b8152600401612704929190612c5e565b600060405180830381600087803b15801561271e57600080fd5b505af1158015612732573d6000803e3d6000fd5b505050505b5050565b60066020528060005260406000206000915054906101000a900460ff1681565b60008135905061276a81612f6d565b92915050565b60008135905061277f81612f84565b92915050565b60008135905061279481612f9b565b92915050565b6000815190506127a981612f9b565b92915050565b6000602082840312156127c157600080fd5b60006127cf8482850161275b565b91505092915050565b600080604083850312156127eb57600080fd5b60006127f98582860161275b565b925050602061280a85828601612785565b9150509250929050565b60006020828403121561282657600080fd5b600061283484828501612770565b91505092915050565b60006020828403121561284f57600080fd5b600061285d8482850161279a565b91505092915050565b61286f81612ea7565b82525050565b61287e81612e4d565b82525050565b61288d81612e5f565b82525050565b61289c81612eb9565b82525050565b6128ab81612edd565b82525050565b6128ba81612f01565b82525050565b6128c981612f25565b82525050565b6128d881612f37565b82525050565b60006128eb602683612e3c565b91507f596f757220636f6e747261637420646f6573206e6f7420686f6c6420314d206460008301527f6f6c6c61727300000000000000000000000000000000000000000000000000006020830152604082019050919050565b6000612951602483612e3c565b91507f53656e64657220686173206e6f74206465706f73697465642044414920696e2060008301527f41415645000000000000000000000000000000000000000000000000000000006020830152604082019050919050565b60006129b7602383612e3c565b91507f596f757220636f6e747261637420646964206e6f7420626f72726f7720746f6b60008301527f656e7300000000000000000000000000000000000000000000000000000000006020830152604082019050919050565b6000612a1d601d83612e3c565b91507f596f752073686f756c64206861766520636f6d706c65746564206578320000006000830152602082019050919050565b6000612a5d602483612e3c565b91507f596f757220636f6e747261637420646964206e6f74206465706f73697420746f60008301527f6b656e73000000000000000000000000000000000000000000000000000000006020830152604082019050919050565b6000612ac3602983612e3c565b91507f596f757220636f6e747261637420646964206e6f74207769746864726177206960008301527f747320746f6b656e7300000000000000000000000000000000000000000000006020830152604082019050919050565b6000612b29602683612e3c565b91507f596f757220636f6e747261637420646964206e6f74207265706179206974732060008301527f746f6b656e7300000000000000000000000000000000000000000000000000006020830152604082019050919050565b6000612b8f602483612e3c565b91507f53656e64657220686173206e6f7420626f72726f776564205553444320696e2060008301527f41415645000000000000000000000000000000000000000000000000000000006020830152604082019050919050565b6000612bf5601d83612e3c565b91507f596f752073686f756c64206861766520636f6d706c65746564206578310000006000830152602082019050919050565b6000602082019050612c3d6000830184612875565b92915050565b6000602082019050612c586000830184612866565b92915050565b6000604082019050612c736000830185612866565b612c8060208301846128c0565b9392505050565b6000604082019050612c9c6000830185612866565b612ca960208301846128cf565b9392505050565b6000602082019050612cc56000830184612884565b92915050565b6000602082019050612ce06000830184612893565b92915050565b6000602082019050612cfb60008301846128a2565b92915050565b6000602082019050612d1660008301846128b1565b92915050565b60006020820190508181036000830152612d35816128de565b9050919050565b60006020820190508181036000830152612d5581612944565b9050919050565b60006020820190508181036000830152612d75816129aa565b9050919050565b60006020820190508181036000830152612d9581612a10565b9050919050565b60006020820190508181036000830152612db581612a50565b9050919050565b60006020820190508181036000830152612dd581612ab6565b9050919050565b60006020820190508181036000830152612df581612b1c565b9050919050565b60006020820190508181036000830152612e1581612b82565b9050919050565b60006020820190508181036000830152612e3581612be8565b9050919050565b600082825260208201905092915050565b6000612e5882612e7d565b9050919050565b60008115159050919050565b6000612e7682612e4d565b9050919050565b600073ffffffffffffffffffffffffffffffffffffffff82169050919050565b6000819050919050565b6000612eb282612f49565b9050919050565b6000612ec482612ecb565b9050919050565b6000612ed682612e7d565b9050919050565b6000612ee882612eef565b9050919050565b6000612efa82612e7d565b9050919050565b6000612f0c82612f13565b9050919050565b6000612f1e82612e7d565b9050919050565b6000612f3082612e9d565b9050919050565b6000612f4282612e9d565b9050919050565b6000612f5482612f5b565b9050919050565b6000612f6682612e7d565b9050919050565b612f7681612e4d565b8114612f8157600080fd5b50565b612f8d81612e6b565b8114612f9857600080fd5b50565b612fa481612e9d565b8114612faf57600080fd5b5056fea26469706673582212205fb46f08c1f1c3a683bff05e6dbf92ebd0f3b5a73b8dc733415550c9bdc1631264736f6c63430006020033",
  "source": "pragma solidity ^0.6.0;\npragma experimental ABIEncoderV2;\n\nimport \"./ERC20TD.sol\";\nimport \"./IExerciceSolution.sol\";\nimport \"@openzeppelin/contracts/token/ERC20/IERC20.sol\";\n\n// import \"./utils/IUniswapV2Factory.sol\";\n// import \"./utils/IUniswapV2Pair.sol\";\n\ncontract Evaluator \n{\n\n\tERC20TD public TDAAVE;\n\tIERC20 public aDAI;\n\tIERC20 public USDC;\n\tIERC20 public variableDebtUSDC;\n\n \tmapping(address => mapping(uint256 => bool)) public exerciceProgression;\n \tmapping(address => IExerciceSolution) public studentExercice;\n \tmapping(address => bool) public hasBeenPaired;\n\n \tevent constructedCorrectly(address erc20Address, address adaiAddress, address aUsdcAddress, address variableDebtUSDCAddress);\n\tconstructor(ERC20TD _TDAAVE, IERC20 _aDAI, IERC20 _USDC, IERC20 _variableDebtUSDC) \n\tpublic \n\t{\n\t\tTDAAVE = _TDAAVE;\n\t\taDAI = _aDAI;\n\t\tUSDC = _USDC;\n\t\tvariableDebtUSDC = _variableDebtUSDC;\n\t\temit constructedCorrectly(address(TDAAVE), address(aDAI), address(USDC), address(variableDebtUSDC));\n\n\t}\n\n\tfallback () external payable \n\t{}\n\n\treceive () external payable \n\t{}\n\n\tfunction ex1_showIDepositedTokens()\n\tpublic\n\t{\n\n\t\t// Sender should have deposited testnet aDAI\n\t\trequire(aDAI.balanceOf(msg.sender) > 0, \"Sender has not deposited DAI in AAVE\");\n\n\t\t// Distributing points\n\t\tif (!exerciceProgression[msg.sender][1])\n\t\t{\n\t\t\texerciceProgression[msg.sender][1] = true;\n\t\t\tTDAAVE.distributeTokens(msg.sender, 2);\n\t\t}\n\n\t}\n\n\tfunction ex2_showIBorrowedTokens()\n\tpublic\n\t{\n\n\t\t// Sender should have borrowed USDC on AAVE \n\t\trequire(variableDebtUSDC.balanceOf(msg.sender) > 0, \"Sender has not borrowed USDC in AAVE\");\n\n\t\t// Distributing points\n\t\tif (!exerciceProgression[msg.sender][2])\n\t\t{\n\t\t\texerciceProgression[msg.sender][2] = true;\n\t\t\tTDAAVE.distributeTokens(msg.sender, 2);\n\t\t}\n\n\t}\n\n\tfunction ex3_showIRepaidTokens()\n\tpublic\n\t{\n\n\t\trequire(exerciceProgression[msg.sender][2], \"You should have completed ex2\");\n\t\t// // Sender should repaid his testnet USDC\n\t\trequire(variableDebtUSDC.balanceOf(msg.sender) == 0, \"Sender has not deposited DAI in AAVE\");\n\n\t\t// Distributing points\n\t\tif (!exerciceProgression[msg.sender][3])\n\t\t{\n\t\t\texerciceProgression[msg.sender][3] = true;\n\t\t\tTDAAVE.distributeTokens(msg.sender, 2);\n\t\t}\n\n\t}\n\n\tfunction ex4_showIWithdrewTokens()\n\tpublic\n\t{\n\n\t\trequire(exerciceProgression[msg.sender][1], \"You should have completed ex1\");\n\n\t\t// // Sender should have no more testnet aDAI\n\t\trequire(aDAI.balanceOf(msg.sender) == 0, \"Sender has not deposited DAI in AAVE\");\n\n\t\t// Distributing points\n\t\tif (!exerciceProgression[msg.sender][4])\n\t\t{\n\t\t\texerciceProgression[msg.sender][4] = true;\n\t\t\tTDAAVE.distributeTokens(msg.sender, 2);\n\t\t}\n\n\t}\n\n\tfunction ex5_showContractCanDepositTokens()\n\tpublic\n\t{\n\t\t// Reading initial aDai balance\n\t\tuint256 initialBalance = aDAI.balanceOf(address(studentExercice[msg.sender]));\n\n\t\t// Trigger token deposit function\n\t\tstudentExercice[msg.sender].depositSomeTokens();\n\n\t\t// Read end balance\n\t\tuint256 endBalance = aDAI.balanceOf(address(studentExercice[msg.sender]));\n\n\t\t// Verify that contract did borrow\n\t\trequire(initialBalance < endBalance, \"Your contract did not deposit tokens\");\n\n\t\t// Distributing points\n\t\tif (!exerciceProgression[msg.sender][5])\n\t\t{\n\t\t\texerciceProgression[msg.sender][5] = true;\n\t\t\tTDAAVE.distributeTokens(msg.sender, 2);\n\t\t}\n\t}\n\n\tfunction ex6_showContractCanBorrowTokens()\n\tpublic\n\t{\n\t\t// Reading initial variableDebtUSDC balance\n\t\tuint256 initialBalance = variableDebtUSDC.balanceOf(address(studentExercice[msg.sender]));\n\n\t\t// Trigger token deposit function\n\t\tstudentExercice[msg.sender].borrowSomeTokens();\n\n\t\t// Read end balance\n\t\tuint256 endBalance = variableDebtUSDC.balanceOf(address(studentExercice[msg.sender]));\n\n\t\t// Verify that contract did borrow\n\t\trequire(initialBalance < endBalance, \"Your contract did not borrow tokens\");\n\n\t\t// Distributing points\n\t\tif (!exerciceProgression[msg.sender][6])\n\t\t{\n\t\t\texerciceProgression[msg.sender][6] = true;\n\t\t\tTDAAVE.distributeTokens(msg.sender, 2);\n\t\t}\n\t}\n\n\tfunction ex7_showContractCanRepayTokens()\n\tpublic\n\t{\n\t\t// Reading initial variableDebtUSDC balance\n\t\tuint256 initialBalance = variableDebtUSDC.balanceOf(address(studentExercice[msg.sender]));\n\n\t\t// Trigger token deposit function\n\t\tstudentExercice[msg.sender].repaySomeTokens();\n\n\t\t// Read end balance\n\t\tuint256 endBalance = variableDebtUSDC.balanceOf(address(studentExercice[msg.sender]));\n\n\t\t// Verify that contract did borrow\n\t\trequire(initialBalance > endBalance, \"Your contract did not repay its tokens\");\n\n\t\t// Distributing points\n\t\tif (!exerciceProgression[msg.sender][7])\n\t\t{\n\t\t\texerciceProgression[msg.sender][7] = true;\n\t\t\tTDAAVE.distributeTokens(msg.sender, 2);\n\t\t}\n\t}\n\n\tfunction ex8_showContractCanWithdrawTokens()\n\tpublic\n\t{\n\t\t// Reading initial aDai balance\n\t\tuint256 initialBalance = aDAI.balanceOf(address(studentExercice[msg.sender]));\n\n\t\t// Trigger token deposit function\n\t\tstudentExercice[msg.sender].withdrawSomeTokens();\n\n\t\t// Read end balance\n\t\tuint256 endBalance = aDAI.balanceOf(address(studentExercice[msg.sender]));\n\n\t\t// Verify that contract did borrow\n\t\trequire(initialBalance > endBalance, \"Your contract did not withdraw its tokens\");\n\n\t\t// Distributing points\n\t\tif (!exerciceProgression[msg.sender][8])\n\t\t{\n\t\t\texerciceProgression[msg.sender][8] = true;\n\t\t\tTDAAVE.distributeTokens(msg.sender, 2);\n\t\t}\n\t}\n\n\tfunction ex9_performFlashLoan()\n\tpublic\n\t{\t\n\t\t// Check https://docs.aave.com/developers/guides/flash-loans\n\n\t\t// Reading initial aDai balance\n\t\tuint256 initialBalance = USDC.balanceOf(address(studentExercice[msg.sender]));\n\n\t\t// Trigger flash loan launch function\n\t\tstudentExercice[msg.sender].doAFlashLoan();\n\n\t\t// Read end balance\n\t\tuint256 endBalance = USDC.balanceOf(address(studentExercice[msg.sender]));\n\n\t\t// Your contract has to borrow 1M USDC. The USDC contract has 6 decimals\n\t\tuint256 amountToBorrow = 1000000 * 1000000;\n\t\t// Verify that contract did borrow\n\t\trequire(endBalance > amountToBorrow, \"Your contract does not hold 1M dollars\");\n\n\t\t// Trigger flash loan repayment function\n\t\tstudentExercice[msg.sender].repayFlashLoan();\n\n\t\t// Distributing points\n\t\tif (!exerciceProgression[msg.sender][9])\n\t\t{\n\t\t\texerciceProgression[msg.sender][9] = true;\n\t\t\tTDAAVE.distributeTokens(msg.sender, 4);\n\t\t}\n\t}\n\n\n\tmodifier onlyTeachers() \n\t{\n\n\t    require(TDAAVE.teachers(msg.sender));\n\t    _;\n\t}\n\n\tfunction submitExercice(IExerciceSolution studentExercice_)\n\tpublic\n\t{\n\t\t// Checking this contract was not used by another group before\n\t\trequire(!hasBeenPaired[address(studentExercice_)]);\n\n\t\t// Assigning passed ERC20 as student ERC20\n\t\tstudentExercice[msg.sender] = studentExercice_;\n\t\thasBeenPaired[address(studentExercice_)] = true;\n\t\t\t\n\t}\n\n}\n",
  "sourcePath": "/Users/henrilieutaud/Documents/Mes documents/ESILV/Workshop/lending-101/contracts/Evaluator.sol",
  "compiler": {
    "name": "solc",
    "version": "0.6.2+commit.bacdbe57.Emscripten.clang"
  },
  "schemaVersion": "3.3.4",
  "updatedAt": "2022-01-14T10:23:08.010Z",
  "devdoc": {
    "methods": {}
  },
  "userdoc": {
    "methods": {}
  }
}